{
  "_format": "hh-sol-artifact-1",
  "contractName": "RCCStake",
  "sourceName": "contracts/RCCStake.sol",
  "abi": [
    {
      "inputs": [],
      "name": "AccessControlBadConfirmation",
      "type": "error"
    },
    {
      "inputs": [
        {
          "internalType": "address",
          "name": "account",
          "type": "address"
        },
        {
          "internalType": "bytes32",
          "name": "neededRole",
          "type": "bytes32"
        }
      ],
      "name": "AccessControlUnauthorizedAccount",
      "type": "error"
    },
    {
      "inputs": [
        {
          "internalType": "address",
          "name": "target",
          "type": "address"
        }
      ],
      "name": "AddressEmptyCode",
      "type": "error"
    },
    {
      "inputs": [
        {
          "internalType": "address",
          "name": "account",
          "type": "address"
        }
      ],
      "name": "AddressInsufficientBalance",
      "type": "error"
    },
    {
      "inputs": [
        {
          "internalType": "address",
          "name": "implementation",
          "type": "address"
        }
      ],
      "name": "ERC1967InvalidImplementation",
      "type": "error"
    },
    {
      "inputs": [],
      "name": "ERC1967NonPayable",
      "type": "error"
    },
    {
      "inputs": [],
      "name": "EnforcedPause",
      "type": "error"
    },
    {
      "inputs": [],
      "name": "ExpectedPause",
      "type": "error"
    },
    {
      "inputs": [],
      "name": "FailedInnerCall",
      "type": "error"
    },
    {
      "inputs": [],
      "name": "InvalidInitialization",
      "type": "error"
    },
    {
      "inputs": [],
      "name": "NotInitializing",
      "type": "error"
    },
    {
      "inputs": [
        {
          "internalType": "address",
          "name": "token",
          "type": "address"
        }
      ],
      "name": "SafeERC20FailedOperation",
      "type": "error"
    },
    {
      "inputs": [],
      "name": "UUPSUnauthorizedCallContext",
      "type": "error"
    },
    {
      "inputs": [
        {
          "internalType": "bytes32",
          "name": "slot",
          "type": "bytes32"
        }
      ],
      "name": "UUPSUnsupportedProxiableUUID",
      "type": "error"
    },
    {
      "anonymous": false,
      "inputs": [
        {
          "indexed": true,
          "internalType": "address",
          "name": "stTokenAddress",
          "type": "address"
        },
        {
          "indexed": true,
          "internalType": "uint256",
          "name": "poolWeight",
          "type": "uint256"
        },
        {
          "indexed": true,
          "internalType": "uint256",
          "name": "lastRewardBlock",
          "type": "uint256"
        },
        {
          "indexed": false,
          "internalType": "uint256",
          "name": "minDepositAmount",
          "type": "uint256"
        },
        {
          "indexed": false,
          "internalType": "uint256",
          "name": "unstakeLockedBlocks",
          "type": "uint256"
        }
      ],
      "name": "AddPool",
      "type": "event"
    },
    {
      "anonymous": false,
      "inputs": [
        {
          "indexed": true,
          "internalType": "address",
          "name": "user",
          "type": "address"
        },
        {
          "indexed": true,
          "internalType": "uint256",
          "name": "poolId",
          "type": "uint256"
        },
        {
          "indexed": false,
          "internalType": "uint256",
          "name": "RCCReward",
          "type": "uint256"
        }
      ],
      "name": "Claim",
      "type": "event"
    },
    {
      "anonymous": false,
      "inputs": [
        {
          "indexed": true,
          "internalType": "address",
          "name": "user",
          "type": "address"
        },
        {
          "indexed": true,
          "internalType": "uint256",
          "name": "poolId",
          "type": "uint256"
        },
        {
          "indexed": false,
          "internalType": "uint256",
          "name": "amount",
          "type": "uint256"
        }
      ],
      "name": "Deposit",
      "type": "event"
    },
    {
      "anonymous": false,
      "inputs": [
        {
          "indexed": false,
          "internalType": "uint64",
          "name": "version",
          "type": "uint64"
        }
      ],
      "name": "Initialized",
      "type": "event"
    },
    {
      "anonymous": false,
      "inputs": [],
      "name": "PauseClaim",
      "type": "event"
    },
    {
      "anonymous": false,
      "inputs": [],
      "name": "PauseWithdraw",
      "type": "event"
    },
    {
      "anonymous": false,
      "inputs": [
        {
          "indexed": false,
          "internalType": "address",
          "name": "account",
          "type": "address"
        }
      ],
      "name": "Paused",
      "type": "event"
    },
    {
      "anonymous": false,
      "inputs": [
        {
          "indexed": true,
          "internalType": "address",
          "name": "user",
          "type": "address"
        },
        {
          "indexed": true,
          "internalType": "uint256",
          "name": "poolId",
          "type": "uint256"
        },
        {
          "indexed": false,
          "internalType": "uint256",
          "name": "amount",
          "type": "uint256"
        }
      ],
      "name": "RequestUnstake",
      "type": "event"
    },
    {
      "anonymous": false,
      "inputs": [
        {
          "indexed": true,
          "internalType": "bytes32",
          "name": "role",
          "type": "bytes32"
        },
        {
          "indexed": true,
          "internalType": "bytes32",
          "name": "previousAdminRole",
          "type": "bytes32"
        },
        {
          "indexed": true,
          "internalType": "bytes32",
          "name": "newAdminRole",
          "type": "bytes32"
        }
      ],
      "name": "RoleAdminChanged",
      "type": "event"
    },
    {
      "anonymous": false,
      "inputs": [
        {
          "indexed": true,
          "internalType": "bytes32",
          "name": "role",
          "type": "bytes32"
        },
        {
          "indexed": true,
          "internalType": "address",
          "name": "account",
          "type": "address"
        },
        {
          "indexed": true,
          "internalType": "address",
          "name": "sender",
          "type": "address"
        }
      ],
      "name": "RoleGranted",
      "type": "event"
    },
    {
      "anonymous": false,
      "inputs": [
        {
          "indexed": true,
          "internalType": "bytes32",
          "name": "role",
          "type": "bytes32"
        },
        {
          "indexed": true,
          "internalType": "address",
          "name": "account",
          "type": "address"
        },
        {
          "indexed": true,
          "internalType": "address",
          "name": "sender",
          "type": "address"
        }
      ],
      "name": "RoleRevoked",
      "type": "event"
    },
    {
      "anonymous": false,
      "inputs": [
        {
          "indexed": true,
          "internalType": "uint256",
          "name": "endBlock",
          "type": "uint256"
        }
      ],
      "name": "SetEndBlock",
      "type": "event"
    },
    {
      "anonymous": false,
      "inputs": [
        {
          "indexed": true,
          "internalType": "uint256",
          "name": "poolId",
          "type": "uint256"
        },
        {
          "indexed": true,
          "internalType": "uint256",
          "name": "poolWeight",
          "type": "uint256"
        },
        {
          "indexed": false,
          "internalType": "uint256",
          "name": "totalPoolWeight",
          "type": "uint256"
        }
      ],
      "name": "SetPoolWeight",
      "type": "event"
    },
    {
      "anonymous": false,
      "inputs": [
        {
          "indexed": true,
          "internalType": "contract IERC20",
          "name": "RCC",
          "type": "address"
        }
      ],
      "name": "SetRCC",
      "type": "event"
    },
    {
      "anonymous": false,
      "inputs": [
        {
          "indexed": true,
          "internalType": "uint256",
          "name": "RCCPerBlock",
          "type": "uint256"
        }
      ],
      "name": "SetRCCPerBlock",
      "type": "event"
    },
    {
      "anonymous": false,
      "inputs": [
        {
          "indexed": true,
          "internalType": "uint256",
          "name": "startBlock",
          "type": "uint256"
        }
      ],
      "name": "SetStartBlock",
      "type": "event"
    },
    {
      "anonymous": false,
      "inputs": [],
      "name": "UnpauseClaim",
      "type": "event"
    },
    {
      "anonymous": false,
      "inputs": [],
      "name": "UnpauseWithdraw",
      "type": "event"
    },
    {
      "anonymous": false,
      "inputs": [
        {
          "indexed": false,
          "internalType": "address",
          "name": "account",
          "type": "address"
        }
      ],
      "name": "Unpaused",
      "type": "event"
    },
    {
      "anonymous": false,
      "inputs": [
        {
          "indexed": true,
          "internalType": "uint256",
          "name": "poolId",
          "type": "uint256"
        },
        {
          "indexed": true,
          "internalType": "uint256",
          "name": "lastRewardBlock",
          "type": "uint256"
        },
        {
          "indexed": false,
          "internalType": "uint256",
          "name": "totalRCC",
          "type": "uint256"
        }
      ],
      "name": "UpdatePool",
      "type": "event"
    },
    {
      "anonymous": false,
      "inputs": [
        {
          "indexed": true,
          "internalType": "uint256",
          "name": "poolId",
          "type": "uint256"
        },
        {
          "indexed": true,
          "internalType": "uint256",
          "name": "minDepositAmount",
          "type": "uint256"
        },
        {
          "indexed": true,
          "internalType": "uint256",
          "name": "unstakeLockedBlocks",
          "type": "uint256"
        }
      ],
      "name": "UpdatePoolInfo",
      "type": "event"
    },
    {
      "anonymous": false,
      "inputs": [
        {
          "indexed": true,
          "internalType": "address",
          "name": "implementation",
          "type": "address"
        }
      ],
      "name": "Upgraded",
      "type": "event"
    },
    {
      "anonymous": false,
      "inputs": [
        {
          "indexed": true,
          "internalType": "address",
          "name": "user",
          "type": "address"
        },
        {
          "indexed": true,
          "internalType": "uint256",
          "name": "poolId",
          "type": "uint256"
        },
        {
          "indexed": false,
          "internalType": "uint256",
          "name": "amount",
          "type": "uint256"
        },
        {
          "indexed": true,
          "internalType": "uint256",
          "name": "blockNumber",
          "type": "uint256"
        }
      ],
      "name": "Withdraw",
      "type": "event"
    },
    {
      "inputs": [],
      "name": "ADMIN_ROLE",
      "outputs": [
        {
          "internalType": "bytes32",
          "name": "",
          "type": "bytes32"
        }
      ],
      "stateMutability": "view",
      "type": "function"
    },
    {
      "inputs": [],
      "name": "DEFAULT_ADMIN_ROLE",
      "outputs": [
        {
          "internalType": "bytes32",
          "name": "",
          "type": "bytes32"
        }
      ],
      "stateMutability": "view",
      "type": "function"
    },
    {
      "inputs": [],
      "name": "RCC",
      "outputs": [
        {
          "internalType": "contract IERC20",
          "name": "",
          "type": "address"
        }
      ],
      "stateMutability": "view",
      "type": "function"
    },
    {
      "inputs": [],
      "name": "RCCPerBlock",
      "outputs": [
        {
          "internalType": "uint256",
          "name": "",
          "type": "uint256"
        }
      ],
      "stateMutability": "view",
      "type": "function"
    },
    {
      "inputs": [],
      "name": "UPGRADE_INTERFACE_VERSION",
      "outputs": [
        {
          "internalType": "string",
          "name": "",
          "type": "string"
        }
      ],
      "stateMutability": "view",
      "type": "function"
    },
    {
      "inputs": [],
      "name": "UPGRADE_ROLE",
      "outputs": [
        {
          "internalType": "bytes32",
          "name": "",
          "type": "bytes32"
        }
      ],
      "stateMutability": "view",
      "type": "function"
    },
    {
      "inputs": [
        {
          "internalType": "address",
          "name": "_stTokenAddress",
          "type": "address"
        },
        {
          "internalType": "uint256",
          "name": "_poolWeight",
          "type": "uint256"
        },
        {
          "internalType": "uint256",
          "name": "_minDepositAmount",
          "type": "uint256"
        },
        {
          "internalType": "uint256",
          "name": "_unstakeLockedBlocks",
          "type": "uint256"
        },
        {
          "internalType": "bool",
          "name": "_withUpdate",
          "type": "bool"
        }
      ],
      "name": "addPool",
      "outputs": [],
      "stateMutability": "nonpayable",
      "type": "function"
    },
    {
      "inputs": [
        {
          "internalType": "uint256",
          "name": "_pid",
          "type": "uint256"
        }
      ],
      "name": "claim",
      "outputs": [],
      "stateMutability": "nonpayable",
      "type": "function"
    },
    {
      "inputs": [],
      "name": "claimPaused",
      "outputs": [
        {
          "internalType": "bool",
          "name": "",
          "type": "bool"
        }
      ],
      "stateMutability": "view",
      "type": "function"
    },
    {
      "inputs": [
        {
          "internalType": "uint256",
          "name": "_pid",
          "type": "uint256"
        },
        {
          "internalType": "uint256",
          "name": "_amount",
          "type": "uint256"
        }
      ],
      "name": "deposit",
      "outputs": [],
      "stateMutability": "nonpayable",
      "type": "function"
    },
    {
      "inputs": [
        {
          "internalType": "uint256",
          "name": "nativeCurrency_PID",
          "type": "uint256"
        },
        {
          "internalType": "uint256",
          "name": "_amount",
          "type": "uint256"
        }
      ],
      "name": "depositnativeCurrency",
      "outputs": [],
      "stateMutability": "payable",
      "type": "function"
    },
    {
      "inputs": [],
      "name": "endBlock",
      "outputs": [
        {
          "internalType": "uint256",
          "name": "",
          "type": "uint256"
        }
      ],
      "stateMutability": "view",
      "type": "function"
    },
    {
      "inputs": [
        {
          "internalType": "uint256",
          "name": "_from",
          "type": "uint256"
        },
        {
          "internalType": "uint256",
          "name": "_to",
          "type": "uint256"
        }
      ],
      "name": "getMultiplier",
      "outputs": [
        {
          "internalType": "uint256",
          "name": "multiplier",
          "type": "uint256"
        }
      ],
      "stateMutability": "view",
      "type": "function"
    },
    {
      "inputs": [
        {
          "internalType": "bytes32",
          "name": "role",
          "type": "bytes32"
        }
      ],
      "name": "getRoleAdmin",
      "outputs": [
        {
          "internalType": "bytes32",
          "name": "",
          "type": "bytes32"
        }
      ],
      "stateMutability": "view",
      "type": "function"
    },
    {
      "inputs": [
        {
          "internalType": "bytes32",
          "name": "role",
          "type": "bytes32"
        },
        {
          "internalType": "address",
          "name": "account",
          "type": "address"
        }
      ],
      "name": "grantRole",
      "outputs": [],
      "stateMutability": "nonpayable",
      "type": "function"
    },
    {
      "inputs": [
        {
          "internalType": "bytes32",
          "name": "role",
          "type": "bytes32"
        },
        {
          "internalType": "address",
          "name": "account",
          "type": "address"
        }
      ],
      "name": "hasRole",
      "outputs": [
        {
          "internalType": "bool",
          "name": "",
          "type": "bool"
        }
      ],
      "stateMutability": "view",
      "type": "function"
    },
    {
      "inputs": [
        {
          "internalType": "contract IERC20",
          "name": "_RCC",
          "type": "address"
        },
        {
          "internalType": "uint256",
          "name": "_startBlock",
          "type": "uint256"
        },
        {
          "internalType": "uint256",
          "name": "_endBlock",
          "type": "uint256"
        },
        {
          "internalType": "uint256",
          "name": "_RCCPerBlock",
          "type": "uint256"
        }
      ],
      "name": "initialize",
      "outputs": [],
      "stateMutability": "nonpayable",
      "type": "function"
    },
    {
      "inputs": [],
      "name": "massUpdatePools",
      "outputs": [],
      "stateMutability": "nonpayable",
      "type": "function"
    },
    {
      "inputs": [],
      "name": "nativeCurrency_PID",
      "outputs": [
        {
          "internalType": "uint256",
          "name": "",
          "type": "uint256"
        }
      ],
      "stateMutability": "view",
      "type": "function"
    },
    {
      "inputs": [],
      "name": "pauseClaim",
      "outputs": [],
      "stateMutability": "nonpayable",
      "type": "function"
    },
    {
      "inputs": [],
      "name": "pauseWithdraw",
      "outputs": [],
      "stateMutability": "nonpayable",
      "type": "function"
    },
    {
      "inputs": [],
      "name": "paused",
      "outputs": [
        {
          "internalType": "bool",
          "name": "",
          "type": "bool"
        }
      ],
      "stateMutability": "view",
      "type": "function"
    },
    {
      "inputs": [
        {
          "internalType": "uint256",
          "name": "_pid",
          "type": "uint256"
        },
        {
          "internalType": "address",
          "name": "_user",
          "type": "address"
        }
      ],
      "name": "pendingRCC",
      "outputs": [
        {
          "internalType": "uint256",
          "name": "",
          "type": "uint256"
        }
      ],
      "stateMutability": "view",
      "type": "function"
    },
    {
      "inputs": [
        {
          "internalType": "uint256",
          "name": "_pid",
          "type": "uint256"
        },
        {
          "internalType": "address",
          "name": "_user",
          "type": "address"
        },
        {
          "internalType": "uint256",
          "name": "_blockNumber",
          "type": "uint256"
        }
      ],
      "name": "pendingRCCByBlockNumber",
      "outputs": [
        {
          "internalType": "uint256",
          "name": "",
          "type": "uint256"
        }
      ],
      "stateMutability": "view",
      "type": "function"
    },
    {
      "inputs": [
        {
          "internalType": "uint256",
          "name": "",
          "type": "uint256"
        }
      ],
      "name": "pool",
      "outputs": [
        {
          "internalType": "address",
          "name": "stTokenAddress",
          "type": "address"
        },
        {
          "internalType": "uint256",
          "name": "poolWeight",
          "type": "uint256"
        },
        {
          "internalType": "uint256",
          "name": "lastRewardBlock",
          "type": "uint256"
        },
        {
          "internalType": "uint256",
          "name": "accRCCPerST",
          "type": "uint256"
        },
        {
          "internalType": "uint256",
          "name": "stTokenAmount",
          "type": "uint256"
        },
        {
          "internalType": "uint256",
          "name": "minDepositAmount",
          "type": "uint256"
        },
        {
          "internalType": "uint256",
          "name": "unstakeLockedBlocks",
          "type": "uint256"
        }
      ],
      "stateMutability": "view",
      "type": "function"
    },
    {
      "inputs": [],
      "name": "poolLength",
      "outputs": [
        {
          "internalType": "uint256",
          "name": "",
          "type": "uint256"
        }
      ],
      "stateMutability": "view",
      "type": "function"
    },
    {
      "inputs": [],
      "name": "proxiableUUID",
      "outputs": [
        {
          "internalType": "bytes32",
          "name": "",
          "type": "bytes32"
        }
      ],
      "stateMutability": "view",
      "type": "function"
    },
    {
      "inputs": [
        {
          "internalType": "bytes32",
          "name": "role",
          "type": "bytes32"
        },
        {
          "internalType": "address",
          "name": "callerConfirmation",
          "type": "address"
        }
      ],
      "name": "renounceRole",
      "outputs": [],
      "stateMutability": "nonpayable",
      "type": "function"
    },
    {
      "inputs": [
        {
          "internalType": "bytes32",
          "name": "role",
          "type": "bytes32"
        },
        {
          "internalType": "address",
          "name": "account",
          "type": "address"
        }
      ],
      "name": "revokeRole",
      "outputs": [],
      "stateMutability": "nonpayable",
      "type": "function"
    },
    {
      "inputs": [
        {
          "internalType": "uint256",
          "name": "_endBlock",
          "type": "uint256"
        }
      ],
      "name": "setEndBlock",
      "outputs": [],
      "stateMutability": "nonpayable",
      "type": "function"
    },
    {
      "inputs": [
        {
          "internalType": "uint256",
          "name": "_pid",
          "type": "uint256"
        },
        {
          "internalType": "uint256",
          "name": "_poolWeight",
          "type": "uint256"
        },
        {
          "internalType": "bool",
          "name": "_withUpdate",
          "type": "bool"
        }
      ],
      "name": "setPoolWeight",
      "outputs": [],
      "stateMutability": "nonpayable",
      "type": "function"
    },
    {
      "inputs": [
        {
          "internalType": "contract IERC20",
          "name": "_RCC",
          "type": "address"
        }
      ],
      "name": "setRCC",
      "outputs": [],
      "stateMutability": "nonpayable",
      "type": "function"
    },
    {
      "inputs": [
        {
          "internalType": "uint256",
          "name": "_RCCPerBlock",
          "type": "uint256"
        }
      ],
      "name": "setRCCPerBlock",
      "outputs": [],
      "stateMutability": "nonpayable",
      "type": "function"
    },
    {
      "inputs": [
        {
          "internalType": "uint256",
          "name": "_startBlock",
          "type": "uint256"
        }
      ],
      "name": "setStartBlock",
      "outputs": [],
      "stateMutability": "nonpayable",
      "type": "function"
    },
    {
      "inputs": [
        {
          "internalType": "uint256",
          "name": "_pid",
          "type": "uint256"
        },
        {
          "internalType": "address",
          "name": "_user",
          "type": "address"
        }
      ],
      "name": "stakingBalance",
      "outputs": [
        {
          "internalType": "uint256",
          "name": "",
          "type": "uint256"
        }
      ],
      "stateMutability": "view",
      "type": "function"
    },
    {
      "inputs": [],
      "name": "startBlock",
      "outputs": [
        {
          "internalType": "uint256",
          "name": "",
          "type": "uint256"
        }
      ],
      "stateMutability": "view",
      "type": "function"
    },
    {
      "inputs": [
        {
          "internalType": "bytes4",
          "name": "interfaceId",
          "type": "bytes4"
        }
      ],
      "name": "supportsInterface",
      "outputs": [
        {
          "internalType": "bool",
          "name": "",
          "type": "bool"
        }
      ],
      "stateMutability": "view",
      "type": "function"
    },
    {
      "inputs": [],
      "name": "totalPoolWeight",
      "outputs": [
        {
          "internalType": "uint256",
          "name": "",
          "type": "uint256"
        }
      ],
      "stateMutability": "view",
      "type": "function"
    },
    {
      "inputs": [],
      "name": "unpauseClaim",
      "outputs": [],
      "stateMutability": "nonpayable",
      "type": "function"
    },
    {
      "inputs": [],
      "name": "unpauseWithdraw",
      "outputs": [],
      "stateMutability": "nonpayable",
      "type": "function"
    },
    {
      "inputs": [
        {
          "internalType": "uint256",
          "name": "_pid",
          "type": "uint256"
        },
        {
          "internalType": "uint256",
          "name": "_amount",
          "type": "uint256"
        }
      ],
      "name": "unstake",
      "outputs": [],
      "stateMutability": "nonpayable",
      "type": "function"
    },
    {
      "inputs": [
        {
          "internalType": "uint256",
          "name": "_pid",
          "type": "uint256"
        }
      ],
      "name": "updatePool",
      "outputs": [],
      "stateMutability": "nonpayable",
      "type": "function"
    },
    {
      "inputs": [
        {
          "internalType": "uint256",
          "name": "_pid",
          "type": "uint256"
        },
        {
          "internalType": "uint256",
          "name": "_minDepositAmount",
          "type": "uint256"
        },
        {
          "internalType": "uint256",
          "name": "_unstakeLockedBlocks",
          "type": "uint256"
        }
      ],
      "name": "updatePool",
      "outputs": [],
      "stateMutability": "nonpayable",
      "type": "function"
    },
    {
      "inputs": [
        {
          "internalType": "address",
          "name": "newImplementation",
          "type": "address"
        },
        {
          "internalType": "bytes",
          "name": "data",
          "type": "bytes"
        }
      ],
      "name": "upgradeToAndCall",
      "outputs": [],
      "stateMutability": "payable",
      "type": "function"
    },
    {
      "inputs": [
        {
          "internalType": "uint256",
          "name": "",
          "type": "uint256"
        },
        {
          "internalType": "address",
          "name": "",
          "type": "address"
        }
      ],
      "name": "user",
      "outputs": [
        {
          "internalType": "uint256",
          "name": "stAmount",
          "type": "uint256"
        },
        {
          "internalType": "uint256",
          "name": "finishedRCC",
          "type": "uint256"
        },
        {
          "internalType": "uint256",
          "name": "pendingRCC",
          "type": "uint256"
        }
      ],
      "stateMutability": "view",
      "type": "function"
    },
    {
      "inputs": [
        {
          "internalType": "uint256",
          "name": "_pid",
          "type": "uint256"
        }
      ],
      "name": "withdraw",
      "outputs": [],
      "stateMutability": "nonpayable",
      "type": "function"
    },
    {
      "inputs": [
        {
          "internalType": "uint256",
          "name": "_pid",
          "type": "uint256"
        },
        {
          "internalType": "address",
          "name": "_user",
          "type": "address"
        }
      ],
      "name": "withdrawAmount",
      "outputs": [
        {
          "internalType": "uint256",
          "name": "requestAmount",
          "type": "uint256"
        },
        {
          "internalType": "uint256",
          "name": "pendingWithdrawAmount",
          "type": "uint256"
        }
      ],
      "stateMutability": "view",
      "type": "function"
    },
    {
      "inputs": [],
      "name": "withdrawPaused",
      "outputs": [
        {
          "internalType": "bool",
          "name": "",
          "type": "bool"
        }
      ],
      "stateMutability": "view",
      "type": "function"
    }
  ],
  "bytecode": "0x60a06040523060805234801561001457600080fd5b506080516138ad61003e60003960008181612cab01528181612cd40152612ed001526138ad6000f3fe6080604052600436106102935760003560e01c8063630b5ba11161015a578063b9d49c2a116100c1578063e2bbb1581161007a578063e2bbb158146107e7578063f35e4a6e14610807578063f5485d3214610827578063fad07ece14610847578063fe31311214610867578063ff423357146108c657600080fd5b8063b9d49c2a1461064e578063bed66c0814610752578063c713aa9414610772578063d547741f14610792578063d86c0444146107b2578063de065caa146107d257600080fd5b8063a217fddf11610113578063a217fddf1461064e578063a72d5bf414610663578063ab5e124a146106a1578063ad3cb1cc146106c0578063b6d9d919146106fe578063b908afa81461071e57600080fd5b8063630b5ba1146105a257806375b238fc146105b75780638dbb1e3a146105d95780638ff095f9146105f957806391d148541461060e5780639e2c8a5b1461062e57600080fd5b8063386be144116101fe5780634f1ef286116101b75780634f1ef286146104f957806351eb05a61461050c57806352d1902d1461052c5780635bb6d007146105415780635c975abb146105565780636155e3de1461058d57600080fd5b8063386be1441461045a5780633b2229f6146104705780633b82783e1461048357806341721ab7146104a357806348cd4cb1146104c35780634ec81af1146104d957600080fd5b80632e1a7d4d116102505780632e1a7d4d1461035c5780632f2ff15d1461037e5780632f3ffb9f1461039e57806336568abe146103b857806337849b3c146103d8578063379607f51461043a57600080fd5b806301ffc9a71461029857806302559004146102cd578063081e3eda146102f1578063083c632314610306578063115482341461031c578063248a9ca31461033c575b600080fd5b3480156102a457600080fd5b506102b86102b33660046132d5565b6108fb565b60405190151581526020015b60405180910390f35b3480156102d957600080fd5b506102e360045481565b6040519081526020016102c4565b3480156102fd57600080fd5b506005546102e3565b34801561031257600080fd5b506102e360015481565b34801561032857600080fd5b506102e3610337366004613314565b610932565b34801561034857600080fd5b506102e3610357366004613344565b61098e565b34801561036857600080fd5b5061037c610377366004613344565b6109b0565b005b34801561038a57600080fd5b5061037c610399366004613314565b610c36565b3480156103aa57600080fd5b506003546102b89060ff1681565b3480156103c457600080fd5b5061037c6103d3366004613314565b610c58565b3480156103e457600080fd5b5061041f6103f3366004613314565b600660209081526000928352604080842090915290825290208054600182015460029092015490919083565b604080519384526020840192909252908201526060016102c4565b34801561044657600080fd5b5061037c610455366004613344565b610c90565b34801561046657600080fd5b506102e360025481565b61037c61047e36600461335d565b610e13565b34801561048f57600080fd5b506102e361049e366004613314565b610ecb565b3480156104af57600080fd5b506102e36104be36600461337f565b610f04565b3480156104cf57600080fd5b506102e360005481565b3480156104e557600080fd5b5061037c6104f43660046133b7565b611040565b61037c610507366004613408565b611220565b34801561051857600080fd5b5061037c610527366004613344565b61123f565b34801561053857600080fd5b506102e36114fc565b34801561054d57600080fd5b5061037c611519565b34801561056257600080fd5b507fcd5ed15c6e187e77e9aee88184c21f4f2182ab5827cb3b7e07fbedcd63f033005460ff166102b8565b34801561059957600080fd5b5061037c6115c4565b3480156105ae57600080fd5b5061037c611668565b3480156105c357600080fd5b506102e360008051602061381883398151915281565b3480156105e557600080fd5b506102e36105f436600461335d565b611687565b34801561060557600080fd5b5061037c6117ad565b34801561061a57600080fd5b506102b8610629366004613314565b611858565b34801561063a57600080fd5b5061037c61064936600461335d565b611890565b34801561065a57600080fd5b506102e3600081565b34801561066f57600080fd5b50600354610689906201000090046001600160a01b031681565b6040516001600160a01b0390911681526020016102c4565b3480156106ad57600080fd5b506003546102b890610100900460ff1681565b3480156106cc57600080fd5b506106f1604051806040016040528060058152602001640352e302e360dc1b81525081565b6040516102c491906134f0565b34801561070a57600080fd5b5061037c610719366004613531565b611ac8565b34801561072a57600080fd5b506102e37fcab03bc4dbcc648cd59d6bbe9f848d1e9092f914016aa290ee92e18700d1e6f981565b34801561075e57600080fd5b5061037c61076d366004613344565b611dba565b34801561077e57600080fd5b5061037c61078d366004613344565b611e4a565b34801561079e57600080fd5b5061037c6107ad366004613314565b611eb8565b3480156107be57600080fd5b5061037c6107cd366004613587565b611ed4565b3480156107de57600080fd5b5061037c611f97565b3480156107f357600080fd5b5061037c61080236600461335d565b61203d565b34801561081357600080fd5b5061037c610822366004613344565b61216a565b34801561083357600080fd5b5061037c6108423660046135b3565b6121d5565b34801561085357600080fd5b5061037c6108623660046135d0565b612247565b34801561087357600080fd5b50610887610882366004613344565b612377565b604080516001600160a01b0390981688526020880196909652948601939093526060850191909152608084015260a083015260c082015260e0016102c4565b3480156108d257600080fd5b506108e66108e1366004613314565b6123d0565b604080519283526020830191909152016102c4565b60006001600160e01b03198216637965db0b60e01b148061092c57506301ffc9a760e01b6001600160e01b03198316145b92915050565b600554600090839081106109615760405162461bcd60e51b815260040161095890613609565b60405180910390fd5b60008481526006602090815260408083206001600160a01b038716845290915290205491505b5092915050565b6000908152600080516020613858833981519152602052604090206001015490565b6109b86124d0565b600554819081106109db5760405162461bcd60e51b815260040161095890613609565b60035460ff1615610a235760405162461bcd60e51b81526020600482015260126024820152711dda5d1a191c985dc81a5cc81c185d5cd95960721b6044820152606401610958565b600060058381548110610a3857610a3861362e565b6000918252602080832086845260068252604080852033865290925290832060079092020192509080805b6003840154811015610ae55743846003018281548110610a8557610a8561362e565b90600052602060002090600202016001015411610ae557836003018181548110610ab157610ab161362e565b90600052602060002090600202016000015483610ace919061365a565b925081610ada8161366d565b925050600101610a63565b5060005b6003840154610af9908390613686565b811015610b665760038401610b0e838361365a565b81548110610b1e57610b1e61362e565b9060005260206000209060020201846003018281548110610b4157610b4161362e565b6000918252602090912082546002909202019081556001918201549082015501610ae9565b5060005b81811015610bae5783600301805480610b8557610b85613699565b600082815260208120600260001990930192830201818155600190810191909155915501610b6a565b508115610be95783546001600160a01b0316610bd357610bce3383612515565b610be9565b8354610be9906001600160a01b03163384612647565b4386336001600160a01b03167f02f25270a4d87bea75db541cdfe559334a275b4a233520ed6c0a2429667cca9485604051610c2691815260200190565b60405180910390a4505050505050565b610c3f8261098e565b610c48816126a6565b610c5283836126b3565b50505050565b6001600160a01b0381163314610c815760405163334bd91960e11b815260040160405180910390fd5b610c8b8282612758565b505050565b610c986124d0565b60055481908110610cbb5760405162461bcd60e51b815260040161095890613609565b600354610100900460ff1615610d055760405162461bcd60e51b815260206004820152600f60248201526e18db185a5b481a5cc81c185d5cd959608a1b6044820152606401610958565b600060058381548110610d1a57610d1a61362e565b60009182526020808320868452600682526040808520338652909252922060079091029091019150610d4b8461123f565b600081600201548260010154670de0b6b3a764000085600301548560000154610d7491906136af565b610d7e91906136dc565b610d889190613686565b610d92919061365a565b90508015610dab5760006002830155610dab33826127d4565b60038301548254670de0b6b3a764000091610dc5916136af565b610dcf91906136dc565b6001830155604051818152859033907f34fcbac0073d7c3d388e51312faf357774904998eeb8fca628b9e6f65ee1cbf7906020015b60405180910390a35050505050565b610e1b6124d0565b600060058381548110610e3057610e3061362e565b6000918252602090912060079091020180549091506001600160a01b031615610e6b5760405162461bcd60e51b8152600401610958906136fe565b60058101543490811015610ec15760405162461bcd60e51b815260206004820152601b60248201527f6465706f73697420616d6f756e7420697320746f6f20736d616c6c00000000006044820152606401610958565b610c528482612910565b60055460009083908110610ef15760405162461bcd60e51b815260040161095890613609565b610efc848443610f04565b949350505050565b60055460009084908110610f2a5760405162461bcd60e51b815260040161095890613609565b600060058681548110610f3f57610f3f61362e565b600091825260208083208984526006825260408085206001600160a01b038b1686529092529220600360079092029092019081015460048201546002830154929450909187118015610f9057508015155b15610ff4576000610fa5856002015489611687565b90506000600454866001015483610fbc91906136af565b610fc691906136dc565b905082610fdb82670de0b6b3a76400006136af565b610fe591906136dc565b610fef908561365a565b935050505b600283015460018401548454670de0b6b3a7640000906110159086906136af565b61101f91906136dc565b6110299190613686565b611033919061365a565b9998505050505050505050565b7ff0c57e16840df040f15088dc2f81fe391c3923bec73e23a9662efc9c229c6a008054600160401b810460ff16159067ffffffffffffffff166000811580156110865750825b905060008267ffffffffffffffff1660011480156110a35750303b155b9050811580156110b1575080155b156110cf5760405163f92ee8a960e01b815260040160405180910390fd5b845467ffffffffffffffff1916600117855583156110f957845460ff60401b1916600160401b1785555b8688111580156111095750600086115b61114a5760405162461bcd60e51b8152602060048201526012602482015271696e76616c696420706172616d657465727360701b6044820152606401610958565b611152612c98565b61115a612c98565b6111656000336126b3565b506111907fcab03bc4dbcc648cd59d6bbe9f848d1e9092f914016aa290ee92e18700d1e6f9336126b3565b506111a9600080516020613818833981519152336126b3565b506111b3896121d5565b6000888155600188815560028890556111cf9190808083611ac8565b831561121557845460ff60401b19168555604051600181527fc7f505b2f371ae2175ee4913f4499e1f2633a7b5936321eed1cdaeb6115181d29060200160405180910390a15b505050505050505050565b611228612ca0565b61123182612d45565b61123b8282612d6f565b5050565b600554819081106112625760405162461bcd60e51b815260040161095890613609565b6000600583815481106112775761127761362e565b906000526020600020906007020190508060020154431161129757505050565b6000806112b683600101546112b0856002015443611687565b90612e2c565b91509150816113075760405162461bcd60e51b815260206004820181905260248201527f746f74616c524343206d756c20706f6f6c576569676874206f766572666c6f776044820152606401610958565b600454611315908290612e77565b9092509050816113755760405162461bcd60e51b815260206004820152602560248201527f746f74616c5243432064697620746f74616c506f6f6c576569676874206f766560448201526472666c6f7760d81b6064820152608401610958565b600483015480156114b65760008061139584670de0b6b3a7640000612e2c565b91509150816113e65760405162461bcd60e51b815260206004820152601d60248201527f746f74616c524343206d756c2031206574686572206f766572666c6f770000006044820152606401610958565b6113f08184612e77565b9092509050816114425760405162461bcd60e51b815260206004820152601e60248201527f746f74616c52434320646976207374537570706c79206f766572666c6f7700006044820152606401610958565b60008061145c838960030154612eaa90919063ffffffff16565b91509150816114ad5760405162461bcd60e51b815260206004820152601960248201527f706f6f6c206163635243435065725354206f766572666c6f77000000000000006044820152606401610958565b60038801555050505b436002850181905560405183815287907ff5d2d72d9b25d6853afd7d0554a113b705234b6a68bb36b7f143662994632411906020015b60405180910390a3505050505050565b6000611506612ec5565b5060008051602061383883398151915290565b600080516020613818833981519152611531816126a6565b60035460ff1661158e5760405162461bcd60e51b815260206004820152602260248201527f776974686472617720686173206265656e20616c726561647920756e70617573604482015261195960f21b6064820152608401610958565b6003805460ff191690556040517f1c84bcaead48b692cc46b9b12e9a068951a59c99a2e2bf10b00b60b403cf12e290600090a150565b6000805160206138188339815191526115dc816126a6565b60035460ff161561162f5760405162461bcd60e51b815260206004820181905260248201527f776974686472617720686173206265656e20616c7265616479207061757365646044820152606401610958565b6003805460ff191660011790556040517f8099f593a6aaecd68b6494933cd71f703376ac3975be83692e1b7d800abf683790600090a150565b60055460005b8181101561123b5761167f8161123f565b60010161166e565b6000818311156116cf5760405162461bcd60e51b8152602060048201526013602482015272696e76616c696420626c6f636b2072616e676560681b6044820152606401610958565b6000548310156116df5760005492505b6001548211156116ef5760015491505b818311156117525760405162461bcd60e51b815260206004820152602a60248201527f656e6420626c6f636b206d7573742062652067726561746572207468616e20736044820152697461727420626c6f636b60b01b6064820152608401610958565b600061176660025485856112b09190613686565b92509050806109875760405162461bcd60e51b81526020600482015260136024820152726d756c7469706c696572206f766572666c6f7760681b6044820152606401610958565b6000805160206138188339815191526117c5816126a6565b600354610100900460ff161561181d5760405162461bcd60e51b815260206004820152601d60248201527f636c61696d20686173206265656e20616c7265616479207061757365640000006044820152606401610958565b6003805461ff0019166101001790556040517f6d73d6b34c378ab3bf6630206d60b7882801b91d03ee20d016ff0d5054db81e190600090a150565b6000918252600080516020613858833981519152602090815260408084206001600160a01b0393909316845291905290205460ff1690565b6118986124d0565b600554829081106118bb5760405162461bcd60e51b815260040161095890613609565b60035460ff16156119035760405162461bcd60e51b81526020600482015260126024820152711dda5d1a191c985dc81a5cc81c185d5cd95960721b6044820152606401610958565b6000600584815481106119185761191861362e565b6000918252602080832087845260068252604080852033865290925292208054600790920290920192508411156119915760405162461bcd60e51b815260206004820181905260248201527f4e6f7420656e6f756768207374616b696e6720746f6b656e2062616c616e63656044820152606401610958565b61199a8561123f565b60008160010154670de0b6b3a7640000846003015484600001546119be91906136af565b6119c891906136dc565b6119d29190613686565b905080156119f0578082600201546119ea919061365a565b60028301555b8415611a56578154611a03908690613686565b82556040805180820190915285815260068401546003840191906020820190611a2c904361365a565b90528154600181810184556000938452602093849020835160029093020191825592909101519101555b848360040154611a669190613686565b600484015560038301548254670de0b6b3a764000091611a85916136af565b611a8f91906136dc565b6001830155604051858152869033907fc80277265097707f6f12a4ac4c09d46c9926e2eea2536f63616cb04d9fcad7d6906020016114ec565b600080516020613818833981519152611ae0816126a6565b60055415611b13576001600160a01b038616611b0e5760405162461bcd60e51b8152600401610958906136fe565b611b3a565b6001600160a01b03861615611b3a5760405162461bcd60e51b8152600401610958906136fe565b60008311611b8a5760405162461bcd60e51b815260206004820152601e60248201527f696e76616c6964207769746864726177206c6f636b656420626c6f636b7300006044820152606401610958565b6001544310611bcb5760405162461bcd60e51b815260206004820152600d60248201526c105b1c9958591e48195b991959609a1b6044820152606401610958565b8115611bd957611bd9611668565b600080544311611beb57600054611bed565b435b905085600454611bfd919061365a565b6004556040805160e0810182526001600160a01b0389811680835260208084018b81528486018781526000606087018181526080880182815260a089018f815260c08a018f815260058054600181018255955299517f036b6384b5eca791c62761152d0c79bb0604c104a5fb6f4eb0703f3154bb3db0600790950294850180546001600160a01b03191691909a161790985593517f036b6384b5eca791c62761152d0c79bb0604c104a5fb6f4eb0703f3154bb3db183015591517f036b6384b5eca791c62761152d0c79bb0604c104a5fb6f4eb0703f3154bb3db282015590517f036b6384b5eca791c62761152d0c79bb0604c104a5fb6f4eb0703f3154bb3db382015590517f036b6384b5eca791c62761152d0c79bb0604c104a5fb6f4eb0703f3154bb3db482015592517f036b6384b5eca791c62761152d0c79bb0604c104a5fb6f4eb0703f3154bb3db584015592517f036b6384b5eca791c62761152d0c79bb0604c104a5fb6f4eb0703f3154bb3db6909201919091558251888152918201879052839289927f0fa296fce13e7a0e622b3a892e66220c248337289483a3cfa4130cde0caa1346910160405180910390a450505050505050565b600080516020613818833981519152611dd2816126a6565b60008211611e165760405162461bcd60e51b815260206004820152601160248201527034b73b30b634b2103830b930b6b2ba32b960791b6044820152606401610958565b600282905560405182907f4c70925b625536dd633f6bd2d615c67fddc2e7c63c31164047a981a0df3fee5490600090a25050565b600080516020613818833981519152611e62816126a6565b816000541115611e845760405162461bcd60e51b815260040161095890613735565b600182905560405182907f1132c5baccb51da3d049fabc819697dc845fa224ad59d9b555507d6446b4085090600090a25050565b611ec18261098e565b611eca816126a6565b610c528383612758565b600080516020613818833981519152611eec816126a6565b60055484908110611f0f5760405162461bcd60e51b815260040161095890613609565b8360058681548110611f2357611f2361362e565b9060005260206000209060070201600501819055508260058681548110611f4c57611f4c61362e565b9060005260206000209060070201600601819055508284867f30dffdedaa3e3b4849298233f7cd71d229956e875ab09270498c96b7cf9181fd60405160405180910390a45050505050565b600080516020613818833981519152611faf816126a6565b600354610100900460ff166120065760405162461bcd60e51b815260206004820152601f60248201527f636c61696d20686173206265656e20616c726561647920756e706175736564006044820152606401610958565b6003805461ff00191690556040517fe72cb12952f056e3e7496019725f20a13108ca420f67f1ee9c9cdab73fb8ce8590600090a150565b6120456124d0565b600554829081106120685760405162461bcd60e51b815260040161095890613609565b826000036120cb5760405162461bcd60e51b815260206004820152602a60248201527f6465706f736974206e6f7420737570706f7274206e617469766543757272656e6044820152696379207374616b696e6760b01b6064820152608401610958565b6000600584815481106120e0576120e061362e565b90600052602060002090600702019050806005015483116121435760405162461bcd60e51b815260206004820152601b60248201527f6465706f73697420616d6f756e7420697320746f6f20736d616c6c00000000006044820152606401610958565b8215612160578054612160906001600160a01b0316333086612f0e565b610c528484612910565b600080516020613818833981519152612182816126a6565b6001548211156121a45760405162461bcd60e51b815260040161095890613735565b600082815560405183917f63b90b79f11a0f132bcb2c4a4ddd44abda45c1308a83b2919318df7f5f8b7be491a25050565b6000805160206138188339815191526121ed816126a6565b6003805462010000600160b01b031916620100006001600160a01b0385811682029290921792839055604051920416907f153aae53b92218044bd5f43922617c6b253e50ac98a41b44c3acb5625ded348890600090a25050565b60008051602061381883398151915261225f816126a6565b600554849081106122825760405162461bcd60e51b815260040161095890613609565b600084116122c85760405162461bcd60e51b81526020600482015260136024820152721a5b9d985b1a59081c1bdbdb081dd95a59da1d606a1b6044820152606401610958565b82156122d6576122d6611668565b83600586815481106122ea576122ea61362e565b9060005260206000209060070201600101546004546123099190613686565b612313919061365a565b600481905550836005868154811061232d5761232d61362e565b90600052602060002090600702016001018190555083857f4b8fa3d6a87cb21d1bf4978bf60628ae358a28ac7f39de1751a481c6dd957617600454604051610e0491815260200190565b6005818154811061238757600080fd5b600091825260209091206007909102018054600182015460028301546003840154600485015460058601546006909601546001600160a01b039095169650929491939092919087565b6000808360058054905081106123f85760405162461bcd60e51b815260040161095890613609565b60008581526006602090815260408083206001600160a01b03881684529091528120905b60038201548110156124c6574382600301828154811061243e5761243e61362e565b9060005260206000209060020201600101541161248a5781600301818154811061246a5761246a61362e565b90600052602060002090600202016000015484612487919061365a565b93505b81600301818154811061249f5761249f61362e565b906000526020600020906002020160000154856124bc919061365a565b945060010161241c565b5050509250929050565b7fcd5ed15c6e187e77e9aee88184c21f4f2182ab5827cb3b7e07fbedcd63f033005460ff16156125135760405163d93c066560e01b815260040160405180910390fd5b565b600080836001600160a01b03168360405160006040518083038185875af1925050503d8060008114612563576040519150601f19603f3d011682016040523d82523d6000602084013e612568565b606091505b5091509150816125c65760405162461bcd60e51b815260206004820152602360248201527f6e617469766543757272656e6379207472616e736665722063616c6c206661696044820152621b195960ea1b6064820152608401610958565b805115610c5257808060200190518101906125e1919061377f565b610c525760405162461bcd60e51b815260206004820152603160248201527f6e617469766543757272656e6379207472616e73666572206f7065726174696f6044820152701b88191a59081b9bdd081cdd58d8d95959607a1b6064820152608401610958565b6040516001600160a01b03838116602483015260448201839052610c8b91859182169063a9059cbb906064015b604051602081830303815290604052915060e01b6020820180516001600160e01b038381831617835250505050612f47565b6126b08133612faa565b50565b60006000805160206138588339815191526126ce8484611858565b61274e576000848152602082815260408083206001600160a01b03871684529091529020805460ff191660011790556127043390565b6001600160a01b0316836001600160a01b0316857f2f8788117e7eff1d82e926ec794901d17c78024a50270940304540a733656f0d60405160405180910390a4600191505061092c565b600091505061092c565b60006000805160206138588339815191526127738484611858565b1561274e576000848152602082815260408083206001600160a01b0387168085529252808320805460ff1916905551339287917ff6391f5c32d9c69d2a47ea670b442974b53935d1edc7fd64eb21e047a839171b9190a4600191505061092c565b6003546040516370a0823160e01b81523060048201526000916201000090046001600160a01b0316906370a0823190602401602060405180830381865afa158015612823573d6000803e3d6000fd5b505050506040513d601f19601f82011682018060405250810190612847919061379c565b9050808211156128d05760035460405163a9059cbb60e01b81526001600160a01b03858116600483015260248201849052620100009092049091169063a9059cbb906044015b6020604051808303816000875af11580156128ac573d6000803e3d6000fd5b505050506040513d601f19601f82011682018060405250810190610c52919061377f565b60035460405163a9059cbb60e01b81526001600160a01b03858116600483015260248201859052620100009092049091169063a9059cbb9060440161288d565b6000600583815481106129255761292561362e565b600091825260208083208684526006825260408085203386529092529220600790910290910191506129568461123f565b805415612adf5760038201548154600091829161297291612e2c565b91509150816129935760405162461bcd60e51b8152600401610958906137b5565b6129a581670de0b6b3a7640000612e77565b9092509050816129f75760405162461bcd60e51b815260206004820152601a60248201527f6163635354206469762031206574686572206f766572666c6f770000000000006044820152606401610958565b600080612a11856001015484612fe390919063ffffffff16565b9150915081612a625760405162461bcd60e51b815260206004820152601e60248201527f6163635354207375622066696e6973686564524343206f766572666c6f7700006044820152606401610958565b8015612ada57600080612a82838860020154612eaa90919063ffffffff16565b9150915081612ad35760405162461bcd60e51b815260206004820152601860248201527f757365722070656e64696e67524343206f766572666c6f7700000000000000006044820152606401610958565b6002870155505b505050505b8215612b445780546000908190612af69086612eaa565b9150915081612b405760405162461bcd60e51b815260206004820152601660248201527575736572207374416d6f756e74206f766572666c6f7760501b6044820152606401610958565b8255505b600080612b5e858560040154612eaa90919063ffffffff16565b9150915081612baf5760405162461bcd60e51b815260206004820152601b60248201527f706f6f6c207374546f6b656e416d6f756e74206f766572666c6f7700000000006044820152606401610958565b60048401819055600384015483546000918291612bcb91612e2c565b9150915081612bec5760405162461bcd60e51b8152600401610958906137b5565b612bfe81670de0b6b3a7640000612e77565b909250905081612c505760405162461bcd60e51b815260206004820181905260248201527f66696e6973686564524343206469762031206574686572206f766572666c6f776044820152606401610958565b60018501819055604051878152889033907f90890809c654f11d6e72a28fa60149770a0d11ec6c92319d6ceb2bb0a4ea1a159060200160405180910390a35050505050505050565b612513613005565b306001600160a01b037f0000000000000000000000000000000000000000000000000000000000000000161480612d2757507f00000000000000000000000000000000000000000000000000000000000000006001600160a01b0316612d1b600080516020613838833981519152546001600160a01b031690565b6001600160a01b031614155b156125135760405163703e46dd60e11b815260040160405180910390fd5b7fcab03bc4dbcc648cd59d6bbe9f848d1e9092f914016aa290ee92e18700d1e6f961123b816126a6565b816001600160a01b03166352d1902d6040518163ffffffff1660e01b8152600401602060405180830381865afa925050508015612dc9575060408051601f3d908101601f19168201909252612dc69181019061379c565b60015b612df157604051634c9c8ce360e01b81526001600160a01b0383166004820152602401610958565b6000805160206138388339815191528114612e2257604051632a87526960e21b815260048101829052602401610958565b610c8b838361304e565b60008083600003612e435750600190506000612e70565b83830283858281612e5657612e566136c6565b0414612e69576000809250925050612e70565b6001925090505b9250929050565b60008082600003612e8d57506000905080612e70565b6001838581612e9e57612e9e6136c6565b04915091509250929050565b60008083830184811015612e69576000809250925050612e70565b306001600160a01b037f000000000000000000000000000000000000000000000000000000000000000016146125135760405163703e46dd60e11b815260040160405180910390fd5b6040516001600160a01b038481166024830152838116604483015260648201839052610c529186918216906323b872dd90608401612674565b6000612f5c6001600160a01b038416836130a4565b90508051600014158015612f81575080806020019051810190612f7f919061377f565b155b15610c8b57604051635274afe760e01b81526001600160a01b0384166004820152602401610958565b612fb48282611858565b61123b5760405163e2517d3f60e01b81526001600160a01b038216600482015260248101839052604401610958565b60008083831115612ff957506000905080612e70565b50600193919092039150565b7ff0c57e16840df040f15088dc2f81fe391c3923bec73e23a9662efc9c229c6a0054600160401b900460ff1661251357604051631afcd79f60e31b815260040160405180910390fd5b613057826130b9565b6040516001600160a01b038316907fbc7cd75a20ee27fd9adebab32041f755214dbc6bffa90cc0225b39da2e5c2d3b90600090a280511561309c57610c8b828261311e565b61123b613194565b60606130b2838360006131b3565b9392505050565b806001600160a01b03163b6000036130ef57604051634c9c8ce360e01b81526001600160a01b0382166004820152602401610958565b60008051602061383883398151915280546001600160a01b0319166001600160a01b0392909216919091179055565b6060600080846001600160a01b03168460405161313b91906137fb565b600060405180830381855af49150503d8060008114613176576040519150601f19603f3d011682016040523d82523d6000602084013e61317b565b606091505b509150915061318b858383613250565b95945050505050565b34156125135760405163b398979f60e01b815260040160405180910390fd5b6060814710156131d85760405163cd78605960e01b8152306004820152602401610958565b600080856001600160a01b031684866040516131f491906137fb565b60006040518083038185875af1925050503d8060008114613231576040519150601f19603f3d011682016040523d82523d6000602084013e613236565b606091505b5091509150613246868383613250565b9695505050505050565b60608261326557613260826132ac565b6130b2565b815115801561327c57506001600160a01b0384163b155b156132a557604051639996b31560e01b81526001600160a01b0385166004820152602401610958565b50806130b2565b8051156132bc5780518082602001fd5b604051630a12f52160e11b815260040160405180910390fd5b6000602082840312156132e757600080fd5b81356001600160e01b0319811681146130b257600080fd5b6001600160a01b03811681146126b057600080fd5b6000806040838503121561332757600080fd5b823591506020830135613339816132ff565b809150509250929050565b60006020828403121561335657600080fd5b5035919050565b6000806040838503121561337057600080fd5b50508035926020909101359150565b60008060006060848603121561339457600080fd5b8335925060208401356133a6816132ff565b929592945050506040919091013590565b600080600080608085870312156133cd57600080fd5b84356133d8816132ff565b966020860135965060408601359560600135945092505050565b634e487b7160e01b600052604160045260246000fd5b6000806040838503121561341b57600080fd5b8235613426816132ff565b9150602083013567ffffffffffffffff8082111561344357600080fd5b818501915085601f83011261345757600080fd5b813581811115613469576134696133f2565b604051601f8201601f19908116603f01168101908382118183101715613491576134916133f2565b816040528281528860208487010111156134aa57600080fd5b8260208601602083013760006020848301015280955050505050509250929050565b60005b838110156134e75781810151838201526020016134cf565b50506000910152565b602081526000825180602084015261350f8160408501602087016134cc565b601f01601f19169190910160400192915050565b80151581146126b057600080fd5b600080600080600060a0868803121561354957600080fd5b8535613554816132ff565b9450602086013593506040860135925060608601359150608086013561357981613523565b809150509295509295909350565b60008060006060848603121561359c57600080fd5b505081359360208301359350604090920135919050565b6000602082840312156135c557600080fd5b81356130b2816132ff565b6000806000606084860312156135e557600080fd5b833592506020840135915060408401356135fe81613523565b809150509250925092565b6020808252600b908201526a1a5b9d985b1a59081c1a5960aa1b604082015260600190565b634e487b7160e01b600052603260045260246000fd5b634e487b7160e01b600052601160045260246000fd5b8082018082111561092c5761092c613644565b60006001820161367f5761367f613644565b5060010190565b8181038181111561092c5761092c613644565b634e487b7160e01b600052603160045260246000fd5b808202811582820484141761092c5761092c613644565b634e487b7160e01b600052601260045260246000fd5b6000826136f957634e487b7160e01b600052601260045260246000fd5b500490565b6020808252601d908201527f696e76616c6964207374616b696e6720746f6b656e2061646472657373000000604082015260600190565b6020808252602a908201527f737461727420626c6f636b206d75737420626520736d616c6c6572207468616e60408201526920656e6420626c6f636b60b01b606082015260800190565b60006020828403121561379157600080fd5b81516130b281613523565b6000602082840312156137ae57600080fd5b5051919050565b60208082526026908201527f75736572207374416d6f756e74206d756c206163635243435065725354206f766040820152656572666c6f7760d01b606082015260800190565b6000825161380d8184602087016134cc565b919091019291505056fe589d473ba17c0f47d494622893831497bad25919b9afb8e33e9521b8963fccde360894a13ba1a3210667c828492db98dca3e2076cc3735a920a3ca505d382bbc02dd7bc7dec4dceedda775e58dd541e08a116c6c53815c0bd028192f7b626800a26469706673582212209f1643f8d24c7ffcef49715cae355789fd24e366f6702b17eadb94fb9876d49064736f6c63430008180033",
  "linkReferences": {},
  "deployedLinkReferences": {}
}