{
  "_format": "hh-sol-artifact-1",
  "contractName": "RCCStake",
  "sourceName": "contracts/RCCStake.sol",
  "abi": [
    {
      "inputs": [],
      "name": "AccessControlBadConfirmation",
      "type": "error"
    },
    {
      "inputs": [
        {
          "internalType": "address",
          "name": "account",
          "type": "address"
        },
        {
          "internalType": "bytes32",
          "name": "neededRole",
          "type": "bytes32"
        }
      ],
      "name": "AccessControlUnauthorizedAccount",
      "type": "error"
    },
    {
      "inputs": [
        {
          "internalType": "address",
          "name": "target",
          "type": "address"
        }
      ],
      "name": "AddressEmptyCode",
      "type": "error"
    },
    {
      "inputs": [
        {
          "internalType": "address",
          "name": "account",
          "type": "address"
        }
      ],
      "name": "AddressInsufficientBalance",
      "type": "error"
    },
    {
      "inputs": [
        {
          "internalType": "address",
          "name": "implementation",
          "type": "address"
        }
      ],
      "name": "ERC1967InvalidImplementation",
      "type": "error"
    },
    {
      "inputs": [],
      "name": "ERC1967NonPayable",
      "type": "error"
    },
    {
      "inputs": [],
      "name": "EnforcedPause",
      "type": "error"
    },
    {
      "inputs": [],
      "name": "ExpectedPause",
      "type": "error"
    },
    {
      "inputs": [],
      "name": "FailedInnerCall",
      "type": "error"
    },
    {
      "inputs": [],
      "name": "InvalidInitialization",
      "type": "error"
    },
    {
      "inputs": [],
      "name": "NotInitializing",
      "type": "error"
    },
    {
      "inputs": [
        {
          "internalType": "address",
          "name": "token",
          "type": "address"
        }
      ],
      "name": "SafeERC20FailedOperation",
      "type": "error"
    },
    {
      "inputs": [],
      "name": "UUPSUnauthorizedCallContext",
      "type": "error"
    },
    {
      "inputs": [
        {
          "internalType": "bytes32",
          "name": "slot",
          "type": "bytes32"
        }
      ],
      "name": "UUPSUnsupportedProxiableUUID",
      "type": "error"
    },
    {
      "anonymous": false,
      "inputs": [
        {
          "indexed": true,
          "internalType": "address",
          "name": "stTokenAddress",
          "type": "address"
        },
        {
          "indexed": true,
          "internalType": "uint256",
          "name": "poolWeight",
          "type": "uint256"
        },
        {
          "indexed": true,
          "internalType": "uint256",
          "name": "lastRewardBlock",
          "type": "uint256"
        },
        {
          "indexed": false,
          "internalType": "uint256",
          "name": "minDepositAmount",
          "type": "uint256"
        },
        {
          "indexed": false,
          "internalType": "uint256",
          "name": "unstakeLockedBlocks",
          "type": "uint256"
        }
      ],
      "name": "AddPool",
      "type": "event"
    },
    {
      "anonymous": false,
      "inputs": [
        {
          "indexed": true,
          "internalType": "address",
          "name": "user",
          "type": "address"
        },
        {
          "indexed": true,
          "internalType": "uint256",
          "name": "poolId",
          "type": "uint256"
        },
        {
          "indexed": false,
          "internalType": "uint256",
          "name": "RCCReward",
          "type": "uint256"
        }
      ],
      "name": "Claim",
      "type": "event"
    },
    {
      "anonymous": false,
      "inputs": [
        {
          "indexed": true,
          "internalType": "address",
          "name": "user",
          "type": "address"
        },
        {
          "indexed": true,
          "internalType": "uint256",
          "name": "poolId",
          "type": "uint256"
        },
        {
          "indexed": false,
          "internalType": "uint256",
          "name": "amount",
          "type": "uint256"
        }
      ],
      "name": "Deposit",
      "type": "event"
    },
    {
      "anonymous": false,
      "inputs": [
        {
          "indexed": false,
          "internalType": "uint64",
          "name": "version",
          "type": "uint64"
        }
      ],
      "name": "Initialized",
      "type": "event"
    },
    {
      "anonymous": false,
      "inputs": [],
      "name": "PauseClaim",
      "type": "event"
    },
    {
      "anonymous": false,
      "inputs": [],
      "name": "PauseWithdraw",
      "type": "event"
    },
    {
      "anonymous": false,
      "inputs": [
        {
          "indexed": false,
          "internalType": "address",
          "name": "account",
          "type": "address"
        }
      ],
      "name": "Paused",
      "type": "event"
    },
    {
      "anonymous": false,
      "inputs": [
        {
          "indexed": true,
          "internalType": "address",
          "name": "user",
          "type": "address"
        },
        {
          "indexed": true,
          "internalType": "uint256",
          "name": "poolId",
          "type": "uint256"
        },
        {
          "indexed": false,
          "internalType": "uint256",
          "name": "amount",
          "type": "uint256"
        }
      ],
      "name": "RequestUnstake",
      "type": "event"
    },
    {
      "anonymous": false,
      "inputs": [
        {
          "indexed": true,
          "internalType": "bytes32",
          "name": "role",
          "type": "bytes32"
        },
        {
          "indexed": true,
          "internalType": "bytes32",
          "name": "previousAdminRole",
          "type": "bytes32"
        },
        {
          "indexed": true,
          "internalType": "bytes32",
          "name": "newAdminRole",
          "type": "bytes32"
        }
      ],
      "name": "RoleAdminChanged",
      "type": "event"
    },
    {
      "anonymous": false,
      "inputs": [
        {
          "indexed": true,
          "internalType": "bytes32",
          "name": "role",
          "type": "bytes32"
        },
        {
          "indexed": true,
          "internalType": "address",
          "name": "account",
          "type": "address"
        },
        {
          "indexed": true,
          "internalType": "address",
          "name": "sender",
          "type": "address"
        }
      ],
      "name": "RoleGranted",
      "type": "event"
    },
    {
      "anonymous": false,
      "inputs": [
        {
          "indexed": true,
          "internalType": "bytes32",
          "name": "role",
          "type": "bytes32"
        },
        {
          "indexed": true,
          "internalType": "address",
          "name": "account",
          "type": "address"
        },
        {
          "indexed": true,
          "internalType": "address",
          "name": "sender",
          "type": "address"
        }
      ],
      "name": "RoleRevoked",
      "type": "event"
    },
    {
      "anonymous": false,
      "inputs": [
        {
          "indexed": true,
          "internalType": "uint256",
          "name": "endBlock",
          "type": "uint256"
        }
      ],
      "name": "SetEndBlock",
      "type": "event"
    },
    {
      "anonymous": false,
      "inputs": [
        {
          "indexed": true,
          "internalType": "uint256",
          "name": "poolId",
          "type": "uint256"
        },
        {
          "indexed": true,
          "internalType": "uint256",
          "name": "poolWeight",
          "type": "uint256"
        },
        {
          "indexed": false,
          "internalType": "uint256",
          "name": "totalPoolWeight",
          "type": "uint256"
        }
      ],
      "name": "SetPoolWeight",
      "type": "event"
    },
    {
      "anonymous": false,
      "inputs": [
        {
          "indexed": true,
          "internalType": "contract IERC20",
          "name": "RCC",
          "type": "address"
        }
      ],
      "name": "SetRCC",
      "type": "event"
    },
    {
      "anonymous": false,
      "inputs": [
        {
          "indexed": true,
          "internalType": "uint256",
          "name": "RCCPerBlock",
          "type": "uint256"
        }
      ],
      "name": "SetRCCPerBlock",
      "type": "event"
    },
    {
      "anonymous": false,
      "inputs": [
        {
          "indexed": true,
          "internalType": "uint256",
          "name": "startBlock",
          "type": "uint256"
        }
      ],
      "name": "SetStartBlock",
      "type": "event"
    },
    {
      "anonymous": false,
      "inputs": [],
      "name": "UnpauseClaim",
      "type": "event"
    },
    {
      "anonymous": false,
      "inputs": [],
      "name": "UnpauseWithdraw",
      "type": "event"
    },
    {
      "anonymous": false,
      "inputs": [
        {
          "indexed": false,
          "internalType": "address",
          "name": "account",
          "type": "address"
        }
      ],
      "name": "Unpaused",
      "type": "event"
    },
    {
      "anonymous": false,
      "inputs": [
        {
          "indexed": true,
          "internalType": "uint256",
          "name": "poolId",
          "type": "uint256"
        },
        {
          "indexed": true,
          "internalType": "uint256",
          "name": "lastRewardBlock",
          "type": "uint256"
        },
        {
          "indexed": false,
          "internalType": "uint256",
          "name": "totalRCC",
          "type": "uint256"
        }
      ],
      "name": "UpdatePool",
      "type": "event"
    },
    {
      "anonymous": false,
      "inputs": [
        {
          "indexed": true,
          "internalType": "uint256",
          "name": "poolId",
          "type": "uint256"
        },
        {
          "indexed": true,
          "internalType": "uint256",
          "name": "minDepositAmount",
          "type": "uint256"
        },
        {
          "indexed": true,
          "internalType": "uint256",
          "name": "unstakeLockedBlocks",
          "type": "uint256"
        }
      ],
      "name": "UpdatePoolInfo",
      "type": "event"
    },
    {
      "anonymous": false,
      "inputs": [
        {
          "indexed": true,
          "internalType": "address",
          "name": "implementation",
          "type": "address"
        }
      ],
      "name": "Upgraded",
      "type": "event"
    },
    {
      "anonymous": false,
      "inputs": [
        {
          "indexed": true,
          "internalType": "address",
          "name": "user",
          "type": "address"
        },
        {
          "indexed": true,
          "internalType": "uint256",
          "name": "poolId",
          "type": "uint256"
        },
        {
          "indexed": false,
          "internalType": "uint256",
          "name": "amount",
          "type": "uint256"
        },
        {
          "indexed": true,
          "internalType": "uint256",
          "name": "blockNumber",
          "type": "uint256"
        }
      ],
      "name": "Withdraw",
      "type": "event"
    },
    {
      "inputs": [],
      "name": "ADMIN_ROLE",
      "outputs": [
        {
          "internalType": "bytes32",
          "name": "",
          "type": "bytes32"
        }
      ],
      "stateMutability": "view",
      "type": "function"
    },
    {
      "inputs": [],
      "name": "DEFAULT_ADMIN_ROLE",
      "outputs": [
        {
          "internalType": "bytes32",
          "name": "",
          "type": "bytes32"
        }
      ],
      "stateMutability": "view",
      "type": "function"
    },
    {
      "inputs": [],
      "name": "RCC",
      "outputs": [
        {
          "internalType": "contract IERC20",
          "name": "",
          "type": "address"
        }
      ],
      "stateMutability": "view",
      "type": "function"
    },
    {
      "inputs": [],
      "name": "RCCPerBlock",
      "outputs": [
        {
          "internalType": "uint256",
          "name": "",
          "type": "uint256"
        }
      ],
      "stateMutability": "view",
      "type": "function"
    },
    {
      "inputs": [],
      "name": "UPGRADE_INTERFACE_VERSION",
      "outputs": [
        {
          "internalType": "string",
          "name": "",
          "type": "string"
        }
      ],
      "stateMutability": "view",
      "type": "function"
    },
    {
      "inputs": [],
      "name": "UPGRADE_ROLE",
      "outputs": [
        {
          "internalType": "bytes32",
          "name": "",
          "type": "bytes32"
        }
      ],
      "stateMutability": "view",
      "type": "function"
    },
    {
      "inputs": [
        {
          "internalType": "address",
          "name": "_stTokenAddress",
          "type": "address"
        },
        {
          "internalType": "uint256",
          "name": "_poolWeight",
          "type": "uint256"
        },
        {
          "internalType": "uint256",
          "name": "_minDepositAmount",
          "type": "uint256"
        },
        {
          "internalType": "uint256",
          "name": "_unstakeLockedBlocks",
          "type": "uint256"
        },
        {
          "internalType": "bool",
          "name": "_withUpdate",
          "type": "bool"
        }
      ],
      "name": "addPool",
      "outputs": [],
      "stateMutability": "nonpayable",
      "type": "function"
    },
    {
      "inputs": [
        {
          "internalType": "uint256",
          "name": "_pid",
          "type": "uint256"
        }
      ],
      "name": "claim",
      "outputs": [],
      "stateMutability": "nonpayable",
      "type": "function"
    },
    {
      "inputs": [],
      "name": "claimPaused",
      "outputs": [
        {
          "internalType": "bool",
          "name": "",
          "type": "bool"
        }
      ],
      "stateMutability": "view",
      "type": "function"
    },
    {
      "inputs": [
        {
          "internalType": "uint256",
          "name": "_pid",
          "type": "uint256"
        },
        {
          "internalType": "uint256",
          "name": "_amount",
          "type": "uint256"
        }
      ],
      "name": "deposit",
      "outputs": [],
      "stateMutability": "nonpayable",
      "type": "function"
    },
    {
      "inputs": [],
      "name": "depositnativeCurrency",
      "outputs": [],
      "stateMutability": "payable",
      "type": "function"
    },
    {
      "inputs": [],
      "name": "endBlock",
      "outputs": [
        {
          "internalType": "uint256",
          "name": "",
          "type": "uint256"
        }
      ],
      "stateMutability": "view",
      "type": "function"
    },
    {
      "inputs": [
        {
          "internalType": "uint256",
          "name": "_from",
          "type": "uint256"
        },
        {
          "internalType": "uint256",
          "name": "_to",
          "type": "uint256"
        }
      ],
      "name": "getMultiplier",
      "outputs": [
        {
          "internalType": "uint256",
          "name": "multiplier",
          "type": "uint256"
        }
      ],
      "stateMutability": "view",
      "type": "function"
    },
    {
      "inputs": [
        {
          "internalType": "bytes32",
          "name": "role",
          "type": "bytes32"
        }
      ],
      "name": "getRoleAdmin",
      "outputs": [
        {
          "internalType": "bytes32",
          "name": "",
          "type": "bytes32"
        }
      ],
      "stateMutability": "view",
      "type": "function"
    },
    {
      "inputs": [
        {
          "internalType": "bytes32",
          "name": "role",
          "type": "bytes32"
        },
        {
          "internalType": "address",
          "name": "account",
          "type": "address"
        }
      ],
      "name": "grantRole",
      "outputs": [],
      "stateMutability": "nonpayable",
      "type": "function"
    },
    {
      "inputs": [
        {
          "internalType": "bytes32",
          "name": "role",
          "type": "bytes32"
        },
        {
          "internalType": "address",
          "name": "account",
          "type": "address"
        }
      ],
      "name": "hasRole",
      "outputs": [
        {
          "internalType": "bool",
          "name": "",
          "type": "bool"
        }
      ],
      "stateMutability": "view",
      "type": "function"
    },
    {
      "inputs": [
        {
          "internalType": "contract IERC20",
          "name": "_RCC",
          "type": "address"
        },
        {
          "internalType": "uint256",
          "name": "_startBlock",
          "type": "uint256"
        },
        {
          "internalType": "uint256",
          "name": "_endBlock",
          "type": "uint256"
        },
        {
          "internalType": "uint256",
          "name": "_RCCPerBlock",
          "type": "uint256"
        }
      ],
      "name": "initialize",
      "outputs": [],
      "stateMutability": "nonpayable",
      "type": "function"
    },
    {
      "inputs": [],
      "name": "massUpdatePools",
      "outputs": [],
      "stateMutability": "nonpayable",
      "type": "function"
    },
    {
      "inputs": [],
      "name": "nativeCurrency_PID",
      "outputs": [
        {
          "internalType": "uint256",
          "name": "",
          "type": "uint256"
        }
      ],
      "stateMutability": "view",
      "type": "function"
    },
    {
      "inputs": [],
      "name": "pauseClaim",
      "outputs": [],
      "stateMutability": "nonpayable",
      "type": "function"
    },
    {
      "inputs": [],
      "name": "pauseWithdraw",
      "outputs": [],
      "stateMutability": "nonpayable",
      "type": "function"
    },
    {
      "inputs": [],
      "name": "paused",
      "outputs": [
        {
          "internalType": "bool",
          "name": "",
          "type": "bool"
        }
      ],
      "stateMutability": "view",
      "type": "function"
    },
    {
      "inputs": [
        {
          "internalType": "uint256",
          "name": "_pid",
          "type": "uint256"
        },
        {
          "internalType": "address",
          "name": "_user",
          "type": "address"
        }
      ],
      "name": "pendingRCC",
      "outputs": [
        {
          "internalType": "uint256",
          "name": "",
          "type": "uint256"
        }
      ],
      "stateMutability": "view",
      "type": "function"
    },
    {
      "inputs": [
        {
          "internalType": "uint256",
          "name": "_pid",
          "type": "uint256"
        },
        {
          "internalType": "address",
          "name": "_user",
          "type": "address"
        },
        {
          "internalType": "uint256",
          "name": "_blockNumber",
          "type": "uint256"
        }
      ],
      "name": "pendingRCCByBlockNumber",
      "outputs": [
        {
          "internalType": "uint256",
          "name": "",
          "type": "uint256"
        }
      ],
      "stateMutability": "view",
      "type": "function"
    },
    {
      "inputs": [
        {
          "internalType": "uint256",
          "name": "",
          "type": "uint256"
        }
      ],
      "name": "pool",
      "outputs": [
        {
          "internalType": "address",
          "name": "stTokenAddress",
          "type": "address"
        },
        {
          "internalType": "uint256",
          "name": "poolWeight",
          "type": "uint256"
        },
        {
          "internalType": "uint256",
          "name": "lastRewardBlock",
          "type": "uint256"
        },
        {
          "internalType": "uint256",
          "name": "accRCCPerST",
          "type": "uint256"
        },
        {
          "internalType": "uint256",
          "name": "stTokenAmount",
          "type": "uint256"
        },
        {
          "internalType": "uint256",
          "name": "minDepositAmount",
          "type": "uint256"
        },
        {
          "internalType": "uint256",
          "name": "unstakeLockedBlocks",
          "type": "uint256"
        }
      ],
      "stateMutability": "view",
      "type": "function"
    },
    {
      "inputs": [],
      "name": "poolLength",
      "outputs": [
        {
          "internalType": "uint256",
          "name": "",
          "type": "uint256"
        }
      ],
      "stateMutability": "view",
      "type": "function"
    },
    {
      "inputs": [],
      "name": "proxiableUUID",
      "outputs": [
        {
          "internalType": "bytes32",
          "name": "",
          "type": "bytes32"
        }
      ],
      "stateMutability": "view",
      "type": "function"
    },
    {
      "inputs": [
        {
          "internalType": "bytes32",
          "name": "role",
          "type": "bytes32"
        },
        {
          "internalType": "address",
          "name": "callerConfirmation",
          "type": "address"
        }
      ],
      "name": "renounceRole",
      "outputs": [],
      "stateMutability": "nonpayable",
      "type": "function"
    },
    {
      "inputs": [
        {
          "internalType": "bytes32",
          "name": "role",
          "type": "bytes32"
        },
        {
          "internalType": "address",
          "name": "account",
          "type": "address"
        }
      ],
      "name": "revokeRole",
      "outputs": [],
      "stateMutability": "nonpayable",
      "type": "function"
    },
    {
      "inputs": [
        {
          "internalType": "uint256",
          "name": "_endBlock",
          "type": "uint256"
        }
      ],
      "name": "setEndBlock",
      "outputs": [],
      "stateMutability": "nonpayable",
      "type": "function"
    },
    {
      "inputs": [
        {
          "internalType": "uint256",
          "name": "_pid",
          "type": "uint256"
        },
        {
          "internalType": "uint256",
          "name": "_poolWeight",
          "type": "uint256"
        },
        {
          "internalType": "bool",
          "name": "_withUpdate",
          "type": "bool"
        }
      ],
      "name": "setPoolWeight",
      "outputs": [],
      "stateMutability": "nonpayable",
      "type": "function"
    },
    {
      "inputs": [
        {
          "internalType": "contract IERC20",
          "name": "_RCC",
          "type": "address"
        }
      ],
      "name": "setRCC",
      "outputs": [],
      "stateMutability": "nonpayable",
      "type": "function"
    },
    {
      "inputs": [
        {
          "internalType": "uint256",
          "name": "_RCCPerBlock",
          "type": "uint256"
        }
      ],
      "name": "setRCCPerBlock",
      "outputs": [],
      "stateMutability": "nonpayable",
      "type": "function"
    },
    {
      "inputs": [
        {
          "internalType": "uint256",
          "name": "_startBlock",
          "type": "uint256"
        }
      ],
      "name": "setStartBlock",
      "outputs": [],
      "stateMutability": "nonpayable",
      "type": "function"
    },
    {
      "inputs": [
        {
          "internalType": "uint256",
          "name": "_pid",
          "type": "uint256"
        },
        {
          "internalType": "address",
          "name": "_user",
          "type": "address"
        }
      ],
      "name": "stakingBalance",
      "outputs": [
        {
          "internalType": "uint256",
          "name": "",
          "type": "uint256"
        }
      ],
      "stateMutability": "view",
      "type": "function"
    },
    {
      "inputs": [],
      "name": "startBlock",
      "outputs": [
        {
          "internalType": "uint256",
          "name": "",
          "type": "uint256"
        }
      ],
      "stateMutability": "view",
      "type": "function"
    },
    {
      "inputs": [
        {
          "internalType": "bytes4",
          "name": "interfaceId",
          "type": "bytes4"
        }
      ],
      "name": "supportsInterface",
      "outputs": [
        {
          "internalType": "bool",
          "name": "",
          "type": "bool"
        }
      ],
      "stateMutability": "view",
      "type": "function"
    },
    {
      "inputs": [],
      "name": "totalPoolWeight",
      "outputs": [
        {
          "internalType": "uint256",
          "name": "",
          "type": "uint256"
        }
      ],
      "stateMutability": "view",
      "type": "function"
    },
    {
      "inputs": [],
      "name": "unpauseClaim",
      "outputs": [],
      "stateMutability": "nonpayable",
      "type": "function"
    },
    {
      "inputs": [],
      "name": "unpauseWithdraw",
      "outputs": [],
      "stateMutability": "nonpayable",
      "type": "function"
    },
    {
      "inputs": [
        {
          "internalType": "uint256",
          "name": "_pid",
          "type": "uint256"
        },
        {
          "internalType": "uint256",
          "name": "_amount",
          "type": "uint256"
        }
      ],
      "name": "unstake",
      "outputs": [],
      "stateMutability": "nonpayable",
      "type": "function"
    },
    {
      "inputs": [
        {
          "internalType": "uint256",
          "name": "_pid",
          "type": "uint256"
        }
      ],
      "name": "updatePool",
      "outputs": [],
      "stateMutability": "nonpayable",
      "type": "function"
    },
    {
      "inputs": [
        {
          "internalType": "uint256",
          "name": "_pid",
          "type": "uint256"
        },
        {
          "internalType": "uint256",
          "name": "_minDepositAmount",
          "type": "uint256"
        },
        {
          "internalType": "uint256",
          "name": "_unstakeLockedBlocks",
          "type": "uint256"
        }
      ],
      "name": "updatePool",
      "outputs": [],
      "stateMutability": "nonpayable",
      "type": "function"
    },
    {
      "inputs": [
        {
          "internalType": "address",
          "name": "newImplementation",
          "type": "address"
        },
        {
          "internalType": "bytes",
          "name": "data",
          "type": "bytes"
        }
      ],
      "name": "upgradeToAndCall",
      "outputs": [],
      "stateMutability": "payable",
      "type": "function"
    },
    {
      "inputs": [
        {
          "internalType": "uint256",
          "name": "",
          "type": "uint256"
        },
        {
          "internalType": "address",
          "name": "",
          "type": "address"
        }
      ],
      "name": "user",
      "outputs": [
        {
          "internalType": "uint256",
          "name": "stAmount",
          "type": "uint256"
        },
        {
          "internalType": "uint256",
          "name": "finishedRCC",
          "type": "uint256"
        },
        {
          "internalType": "uint256",
          "name": "pendingRCC",
          "type": "uint256"
        }
      ],
      "stateMutability": "view",
      "type": "function"
    },
    {
      "inputs": [
        {
          "internalType": "uint256",
          "name": "_pid",
          "type": "uint256"
        }
      ],
      "name": "withdraw",
      "outputs": [],
      "stateMutability": "nonpayable",
      "type": "function"
    },
    {
      "inputs": [
        {
          "internalType": "uint256",
          "name": "_pid",
          "type": "uint256"
        },
        {
          "internalType": "address",
          "name": "_user",
          "type": "address"
        }
      ],
      "name": "withdrawAmount",
      "outputs": [
        {
          "internalType": "uint256",
          "name": "requestAmount",
          "type": "uint256"
        },
        {
          "internalType": "uint256",
          "name": "pendingWithdrawAmount",
          "type": "uint256"
        }
      ],
      "stateMutability": "view",
      "type": "function"
    },
    {
      "inputs": [],
      "name": "withdrawPaused",
      "outputs": [
        {
          "internalType": "bool",
          "name": "",
          "type": "bool"
        }
      ],
      "stateMutability": "view",
      "type": "function"
    }
  ],
  "bytecode": "0x60a06040523060805234801561001457600080fd5b5060805161397461003e6000396000818161294d015281816129760152612b7201526139746000f3fe6080604052600436106102935760003560e01c806375b238fc1161015a578063b9d49c2a116100c1578063e2bbb1581161007a578063e2bbb158146107dc578063f35e4a6e146107fc578063f5485d321461081c578063fad07ece1461083c578063fe3131121461085c578063ff423357146108bb57600080fd5b8063b9d49c2a1461063b578063bed66c0814610747578063c713aa9414610767578063d547741f14610787578063d86c0444146107a7578063de065caa146107c757600080fd5b8063a6707ee411610113578063a6707ee414610650578063a72d5bf414610658578063ab5e124a14610696578063ad3cb1cc146106b5578063b6d9d919146106f3578063b908afa81461071357600080fd5b806375b238fc146105a45780638dbb1e3a146105c65780638ff095f9146105e657806391d14854146105fb5780639e2c8a5b1461061b578063a217fddf1461063b57600080fd5b8063386be144116101fe57806351eb05a6116101b757806351eb05a6146104f957806352d1902d146105195780635bb6d0071461052e5780635c975abb146105435780636155e3de1461057a578063630b5ba11461058f57600080fd5b8063386be1441461045a5780633b82783e1461047057806341721ab71461049057806348cd4cb1146104b05780634ec81af1146104c65780634f1ef286146104e657600080fd5b80632e1a7d4d116102505780632e1a7d4d1461035c5780632f2ff15d1461037e5780632f3ffb9f1461039e57806336568abe146103b857806337849b3c146103d8578063379607f51461043a57600080fd5b806301ffc9a71461029857806302559004146102cd578063081e3eda146102f1578063083c632314610306578063115482341461031c578063248a9ca31461033c575b600080fd5b3480156102a457600080fd5b506102b86102b336600461336e565b6108f0565b60405190151581526020015b60405180910390f35b3480156102d957600080fd5b506102e360045481565b6040519081526020016102c4565b3480156102fd57600080fd5b506005546102e3565b34801561031257600080fd5b506102e360015481565b34801561032857600080fd5b506102e36103373660046133ad565b610927565b34801561034857600080fd5b506102e36103573660046133dd565b610983565b34801561036857600080fd5b5061037c6103773660046133dd565b6109a5565b005b34801561038a57600080fd5b5061037c6103993660046133ad565b610c2b565b3480156103aa57600080fd5b506003546102b89060ff1681565b3480156103c457600080fd5b5061037c6103d33660046133ad565b610c4d565b3480156103e457600080fd5b5061041f6103f33660046133ad565b600660209081526000928352604080842090915290825290208054600182015460029092015490919083565b604080519384526020840192909252908201526060016102c4565b34801561044657600080fd5b5061037c6104553660046133dd565b610c85565b34801561046657600080fd5b506102e360025481565b34801561047c57600080fd5b506102e361048b3660046133ad565b610e08565b34801561049c57600080fd5b506102e36104ab3660046133f6565b610e41565b3480156104bc57600080fd5b506102e360005481565b3480156104d257600080fd5b5061037c6104e136600461342e565b610f7d565b61037c6104f436600461347f565b61115d565b34801561050557600080fd5b5061037c6105143660046133dd565b61117c565b34801561052557600080fd5b506102e3611439565b34801561053a57600080fd5b5061037c611456565b34801561054f57600080fd5b507fcd5ed15c6e187e77e9aee88184c21f4f2182ab5827cb3b7e07fbedcd63f033005460ff166102b8565b34801561058657600080fd5b5061037c611501565b34801561059b57600080fd5b5061037c6115a5565b3480156105b057600080fd5b506102e36000805160206138df83398151915281565b3480156105d257600080fd5b506102e36105e1366004613543565b6115c4565b3480156105f257600080fd5b5061037c6116ea565b34801561060757600080fd5b506102b86106163660046133ad565b611795565b34801561062757600080fd5b5061037c610636366004613543565b6117cd565b34801561064757600080fd5b506102e3600081565b61037c611a05565b34801561066457600080fd5b5060035461067e906201000090046001600160a01b031681565b6040516001600160a01b0390911681526020016102c4565b3480156106a257600080fd5b506003546102b890610100900460ff1681565b3480156106c157600080fd5b506106e6604051806040016040528060058152602001640352e302e360dc1b81525081565b6040516102c491906135b5565b3480156106ff57600080fd5b5061037c61070e3660046135d6565b611af2565b34801561071f57600080fd5b506102e37fcab03bc4dbcc648cd59d6bbe9f848d1e9092f914016aa290ee92e18700d1e6f981565b34801561075357600080fd5b5061037c6107623660046133dd565b611de4565b34801561077357600080fd5b5061037c6107823660046133dd565b611e74565b34801561079357600080fd5b5061037c6107a23660046133ad565b611ee2565b3480156107b357600080fd5b5061037c6107c236600461362c565b611efe565b3480156107d357600080fd5b5061037c611fc1565b3480156107e857600080fd5b5061037c6107f7366004613543565b612067565b34801561080857600080fd5b5061037c6108173660046133dd565b612194565b34801561082857600080fd5b5061037c610837366004613658565b6121ff565b34801561084857600080fd5b5061037c610857366004613675565b612271565b34801561086857600080fd5b5061087c6108773660046133dd565b6123a1565b604080516001600160a01b0390981688526020880196909652948601939093526060850191909152608084015260a083015260c082015260e0016102c4565b3480156108c757600080fd5b506108db6108d63660046133ad565b6123fa565b604080519283526020830191909152016102c4565b60006001600160e01b03198216637965db0b60e01b148061092157506301ffc9a760e01b6001600160e01b03198316145b92915050565b600554600090839081106109565760405162461bcd60e51b815260040161094d906136ae565b60405180910390fd5b60008481526006602090815260408083206001600160a01b038716845290915290205491505b5092915050565b600090815260008051602061391f833981519152602052604090206001015490565b6109ad6124fa565b600554819081106109d05760405162461bcd60e51b815260040161094d906136ae565b60035460ff1615610a185760405162461bcd60e51b81526020600482015260126024820152711dda5d1a191c985dc81a5cc81c185d5cd95960721b604482015260640161094d565b600060058381548110610a2d57610a2d6136d3565b6000918252602080832086845260068252604080852033865290925290832060079092020192509080805b6003840154811015610ada5743846003018281548110610a7a57610a7a6136d3565b90600052602060002090600202016001015411610ada57836003018181548110610aa657610aa66136d3565b90600052602060002090600202016000015483610ac391906136ff565b925081610acf81613712565b925050600101610a58565b5060005b6003840154610aee90839061372b565b811015610b5b5760038401610b0383836136ff565b81548110610b1357610b136136d3565b9060005260206000209060020201846003018281548110610b3657610b366136d3565b6000918252602090912082546002909202019081556001918201549082015501610ade565b5060005b81811015610ba35783600301805480610b7a57610b7a61373e565b600082815260208120600260001990930192830201818155600190810191909155915501610b5f565b508115610bde5783546001600160a01b0316610bc857610bc3338361253f565b610bde565b8354610bde906001600160a01b03163384612671565b4386336001600160a01b03167f02f25270a4d87bea75db541cdfe559334a275b4a233520ed6c0a2429667cca9485604051610c1b91815260200190565b60405180910390a4505050505050565b610c3482610983565b610c3d816126d0565b610c4783836126dd565b50505050565b6001600160a01b0381163314610c765760405163334bd91960e11b815260040160405180910390fd5b610c808282612782565b505050565b610c8d6124fa565b60055481908110610cb05760405162461bcd60e51b815260040161094d906136ae565b600354610100900460ff1615610cfa5760405162461bcd60e51b815260206004820152600f60248201526e18db185a5b481a5cc81c185d5cd959608a1b604482015260640161094d565b600060058381548110610d0f57610d0f6136d3565b60009182526020808320868452600682526040808520338652909252922060079091029091019150610d408461117c565b600081600201548260010154670de0b6b3a764000085600301548560000154610d699190613754565b610d739190613781565b610d7d919061372b565b610d8791906136ff565b90508015610da05760006002830155610da033826127fe565b60038301548254670de0b6b3a764000091610dba91613754565b610dc49190613781565b6001830155604051818152859033907f34fcbac0073d7c3d388e51312faf357774904998eeb8fca628b9e6f65ee1cbf7906020015b60405180910390a35050505050565b60055460009083908110610e2e5760405162461bcd60e51b815260040161094d906136ae565b610e39848443610e41565b949350505050565b60055460009084908110610e675760405162461bcd60e51b815260040161094d906136ae565b600060058681548110610e7c57610e7c6136d3565b600091825260208083208984526006825260408085206001600160a01b038b1686529092529220600360079092029092019081015460048201546002830154929450909187118015610ecd57508015155b15610f31576000610ee28560020154896115c4565b90506000600454866001015483610ef99190613754565b610f039190613781565b905082610f1882670de0b6b3a7640000613754565b610f229190613781565b610f2c90856136ff565b935050505b600283015460018401548454670de0b6b3a764000090610f52908690613754565b610f5c9190613781565b610f66919061372b565b610f7091906136ff565b9998505050505050505050565b7ff0c57e16840df040f15088dc2f81fe391c3923bec73e23a9662efc9c229c6a008054600160401b810460ff16159067ffffffffffffffff16600081158015610fc35750825b905060008267ffffffffffffffff166001148015610fe05750303b155b905081158015610fee575080155b1561100c5760405163f92ee8a960e01b815260040160405180910390fd5b845467ffffffffffffffff19166001178555831561103657845460ff60401b1916600160401b1785555b8688111580156110465750600086115b6110875760405162461bcd60e51b8152602060048201526012602482015271696e76616c696420706172616d657465727360701b604482015260640161094d565b61108f61293a565b61109761293a565b6110a26000336126dd565b506110cd7fcab03bc4dbcc648cd59d6bbe9f848d1e9092f914016aa290ee92e18700d1e6f9336126dd565b506110e66000805160206138df833981519152336126dd565b506110f0896121ff565b60008881556001888155600288905561110c9190808083611af2565b831561115257845460ff60401b19168555604051600181527fc7f505b2f371ae2175ee4913f4499e1f2633a7b5936321eed1cdaeb6115181d29060200160405180910390a15b505050505050505050565b611165612942565b61116e826129e7565b6111788282612a11565b5050565b6005548190811061119f5760405162461bcd60e51b815260040161094d906136ae565b6000600583815481106111b4576111b46136d3565b90600052602060002090600702019050806002015443116111d457505050565b6000806111f383600101546111ed8560020154436115c4565b90612ace565b91509150816112445760405162461bcd60e51b815260206004820181905260248201527f746f74616c524343206d756c20706f6f6c576569676874206f766572666c6f77604482015260640161094d565b600454611252908290612b19565b9092509050816112b25760405162461bcd60e51b815260206004820152602560248201527f746f74616c5243432064697620746f74616c506f6f6c576569676874206f766560448201526472666c6f7760d81b606482015260840161094d565b600483015480156113f3576000806112d284670de0b6b3a7640000612ace565b91509150816113235760405162461bcd60e51b815260206004820152601d60248201527f746f74616c524343206d756c2031206574686572206f766572666c6f77000000604482015260640161094d565b61132d8184612b19565b90925090508161137f5760405162461bcd60e51b815260206004820152601e60248201527f746f74616c52434320646976207374537570706c79206f766572666c6f770000604482015260640161094d565b600080611399838960030154612b4c90919063ffffffff16565b91509150816113ea5760405162461bcd60e51b815260206004820152601960248201527f706f6f6c206163635243435065725354206f766572666c6f7700000000000000604482015260640161094d565b60038801555050505b436002850181905560405183815287907ff5d2d72d9b25d6853afd7d0554a113b705234b6a68bb36b7f143662994632411906020015b60405180910390a3505050505050565b6000611443612b67565b506000805160206138ff83398151915290565b6000805160206138df83398151915261146e816126d0565b60035460ff166114cb5760405162461bcd60e51b815260206004820152602260248201527f776974686472617720686173206265656e20616c726561647920756e70617573604482015261195960f21b606482015260840161094d565b6003805460ff191690556040517f1c84bcaead48b692cc46b9b12e9a068951a59c99a2e2bf10b00b60b403cf12e290600090a150565b6000805160206138df833981519152611519816126d0565b60035460ff161561156c5760405162461bcd60e51b815260206004820181905260248201527f776974686472617720686173206265656e20616c726561647920706175736564604482015260640161094d565b6003805460ff191660011790556040517f8099f593a6aaecd68b6494933cd71f703376ac3975be83692e1b7d800abf683790600090a150565b60055460005b81811015611178576115bc8161117c565b6001016115ab565b60008183111561160c5760405162461bcd60e51b8152602060048201526013602482015272696e76616c696420626c6f636b2072616e676560681b604482015260640161094d565b60005483101561161c5760005492505b60015482111561162c5760015491505b8183111561168f5760405162461bcd60e51b815260206004820152602a60248201527f656e6420626c6f636b206d7573742062652067726561746572207468616e20736044820152697461727420626c6f636b60b01b606482015260840161094d565b60006116a360025485856111ed919061372b565b925090508061097c5760405162461bcd60e51b81526020600482015260136024820152726d756c7469706c696572206f766572666c6f7760681b604482015260640161094d565b6000805160206138df833981519152611702816126d0565b600354610100900460ff161561175a5760405162461bcd60e51b815260206004820152601d60248201527f636c61696d20686173206265656e20616c726561647920706175736564000000604482015260640161094d565b6003805461ff0019166101001790556040517f6d73d6b34c378ab3bf6630206d60b7882801b91d03ee20d016ff0d5054db81e190600090a150565b600091825260008051602061391f833981519152602090815260408084206001600160a01b0393909316845291905290205460ff1690565b6117d56124fa565b600554829081106117f85760405162461bcd60e51b815260040161094d906136ae565b60035460ff16156118405760405162461bcd60e51b81526020600482015260126024820152711dda5d1a191c985dc81a5cc81c185d5cd95960721b604482015260640161094d565b600060058481548110611855576118556136d3565b6000918252602080832087845260068252604080852033865290925292208054600790920290920192508411156118ce5760405162461bcd60e51b815260206004820181905260248201527f4e6f7420656e6f756768207374616b696e6720746f6b656e2062616c616e6365604482015260640161094d565b6118d78561117c565b60008160010154670de0b6b3a7640000846003015484600001546118fb9190613754565b6119059190613781565b61190f919061372b565b9050801561192d5780826002015461192791906136ff565b60028301555b841561199357815461194090869061372b565b8255604080518082019091528581526006840154600384019190602082019061196990436136ff565b90528154600181810184556000938452602093849020835160029093020191825592909101519101555b8483600401546119a3919061372b565b600484015560038301548254670de0b6b3a7640000916119c291613754565b6119cc9190613781565b6001830155604051858152869033907fc80277265097707f6f12a4ac4c09d46c9926e2eea2536f63616cb04d9fcad7d690602001611429565b611a0d6124fa565b60006005600081548110611a2357611a236136d3565b6000918252602090912060079091020180549091506001600160a01b031615611a5e5760405162461bcd60e51b815260040161094d906137a3565b60058101543490811015611ab45760405162461bcd60e51b815260206004820152601b60248201527f6465706f73697420616d6f756e7420697320746f6f20736d616c6c0000000000604482015260640161094d565b611ae76040518060400160405280601181526020017021b7b73a3930b1ba103130b630b731b29d60791b81525047612bb0565b611178600082612bf5565b6000805160206138df833981519152611b0a816126d0565b60055415611b3d576001600160a01b038616611b385760405162461bcd60e51b815260040161094d906137a3565b611b64565b6001600160a01b03861615611b645760405162461bcd60e51b815260040161094d906137a3565b60008311611bb45760405162461bcd60e51b815260206004820152601e60248201527f696e76616c6964207769746864726177206c6f636b656420626c6f636b730000604482015260640161094d565b6001544310611bf55760405162461bcd60e51b815260206004820152600d60248201526c105b1c9958591e48195b991959609a1b604482015260640161094d565b8115611c0357611c036115a5565b600080544311611c1557600054611c17565b435b905085600454611c2791906136ff565b6004556040805160e0810182526001600160a01b0389811680835260208084018b81528486018781526000606087018181526080880182815260a089018f815260c08a018f815260058054600181018255955299517f036b6384b5eca791c62761152d0c79bb0604c104a5fb6f4eb0703f3154bb3db0600790950294850180546001600160a01b03191691909a161790985593517f036b6384b5eca791c62761152d0c79bb0604c104a5fb6f4eb0703f3154bb3db183015591517f036b6384b5eca791c62761152d0c79bb0604c104a5fb6f4eb0703f3154bb3db282015590517f036b6384b5eca791c62761152d0c79bb0604c104a5fb6f4eb0703f3154bb3db382015590517f036b6384b5eca791c62761152d0c79bb0604c104a5fb6f4eb0703f3154bb3db482015592517f036b6384b5eca791c62761152d0c79bb0604c104a5fb6f4eb0703f3154bb3db584015592517f036b6384b5eca791c62761152d0c79bb0604c104a5fb6f4eb0703f3154bb3db6909201919091558251888152918201879052839289927f0fa296fce13e7a0e622b3a892e66220c248337289483a3cfa4130cde0caa1346910160405180910390a450505050505050565b6000805160206138df833981519152611dfc816126d0565b60008211611e405760405162461bcd60e51b815260206004820152601160248201527034b73b30b634b2103830b930b6b2ba32b960791b604482015260640161094d565b600282905560405182907f4c70925b625536dd633f6bd2d615c67fddc2e7c63c31164047a981a0df3fee5490600090a25050565b6000805160206138df833981519152611e8c816126d0565b816000541115611eae5760405162461bcd60e51b815260040161094d906137da565b600182905560405182907f1132c5baccb51da3d049fabc819697dc845fa224ad59d9b555507d6446b4085090600090a25050565b611eeb82610983565b611ef4816126d0565b610c478383612782565b6000805160206138df833981519152611f16816126d0565b60055484908110611f395760405162461bcd60e51b815260040161094d906136ae565b8360058681548110611f4d57611f4d6136d3565b9060005260206000209060070201600501819055508260058681548110611f7657611f766136d3565b9060005260206000209060070201600601819055508284867f30dffdedaa3e3b4849298233f7cd71d229956e875ab09270498c96b7cf9181fd60405160405180910390a45050505050565b6000805160206138df833981519152611fd9816126d0565b600354610100900460ff166120305760405162461bcd60e51b815260206004820152601f60248201527f636c61696d20686173206265656e20616c726561647920756e70617573656400604482015260640161094d565b6003805461ff00191690556040517fe72cb12952f056e3e7496019725f20a13108ca420f67f1ee9c9cdab73fb8ce8590600090a150565b61206f6124fa565b600554829081106120925760405162461bcd60e51b815260040161094d906136ae565b826000036120f55760405162461bcd60e51b815260206004820152602a60248201527f6465706f736974206e6f7420737570706f7274206e617469766543757272656e6044820152696379207374616b696e6760b01b606482015260840161094d565b60006005848154811061210a5761210a6136d3565b906000526020600020906007020190508060050154831161216d5760405162461bcd60e51b815260206004820152601b60248201527f6465706f73697420616d6f756e7420697320746f6f20736d616c6c0000000000604482015260640161094d565b821561218a57805461218a906001600160a01b0316333086612f7d565b610c478484612bf5565b6000805160206138df8339815191526121ac816126d0565b6001548211156121ce5760405162461bcd60e51b815260040161094d906137da565b600082815560405183917f63b90b79f11a0f132bcb2c4a4ddd44abda45c1308a83b2919318df7f5f8b7be491a25050565b6000805160206138df833981519152612217816126d0565b6003805462010000600160b01b031916620100006001600160a01b0385811682029290921792839055604051920416907f153aae53b92218044bd5f43922617c6b253e50ac98a41b44c3acb5625ded348890600090a25050565b6000805160206138df833981519152612289816126d0565b600554849081106122ac5760405162461bcd60e51b815260040161094d906136ae565b600084116122f25760405162461bcd60e51b81526020600482015260136024820152721a5b9d985b1a59081c1bdbdb081dd95a59da1d606a1b604482015260640161094d565b8215612300576123006115a5565b8360058681548110612314576123146136d3565b906000526020600020906007020160010154600454612333919061372b565b61233d91906136ff565b6004819055508360058681548110612357576123576136d3565b90600052602060002090600702016001018190555083857f4b8fa3d6a87cb21d1bf4978bf60628ae358a28ac7f39de1751a481c6dd957617600454604051610df991815260200190565b600581815481106123b157600080fd5b600091825260209091206007909102018054600182015460028301546003840154600485015460058601546006909601546001600160a01b039095169650929491939092919087565b6000808360058054905081106124225760405162461bcd60e51b815260040161094d906136ae565b60008581526006602090815260408083206001600160a01b03881684529091528120905b60038201548110156124f05743826003018281548110612468576124686136d3565b906000526020600020906002020160010154116124b457816003018181548110612494576124946136d3565b906000526020600020906002020160000154846124b191906136ff565b93505b8160030181815481106124c9576124c96136d3565b906000526020600020906002020160000154856124e691906136ff565b9450600101612446565b5050509250929050565b7fcd5ed15c6e187e77e9aee88184c21f4f2182ab5827cb3b7e07fbedcd63f033005460ff161561253d5760405163d93c066560e01b815260040160405180910390fd5b565b600080836001600160a01b03168360405160006040518083038185875af1925050503d806000811461258d576040519150601f19603f3d011682016040523d82523d6000602084013e612592565b606091505b5091509150816125f05760405162461bcd60e51b815260206004820152602360248201527f6e617469766543757272656e6379207472616e736665722063616c6c206661696044820152621b195960ea1b606482015260840161094d565b805115610c47578080602001905181019061260b9190613824565b610c475760405162461bcd60e51b815260206004820152603160248201527f6e617469766543757272656e6379207472616e73666572206f7065726174696f6044820152701b88191a59081b9bdd081cdd58d8d95959607a1b606482015260840161094d565b6040516001600160a01b03838116602483015260448201839052610c8091859182169063a9059cbb906064015b604051602081830303815290604052915060e01b6020820180516001600160e01b038381831617835250505050612fb6565b6126da8133613019565b50565b600060008051602061391f8339815191526126f88484611795565b612778576000848152602082815260408083206001600160a01b03871684529091529020805460ff1916600117905561272e3390565b6001600160a01b0316836001600160a01b0316857f2f8788117e7eff1d82e926ec794901d17c78024a50270940304540a733656f0d60405160405180910390a46001915050610921565b6000915050610921565b600060008051602061391f83398151915261279d8484611795565b15612778576000848152602082815260408083206001600160a01b0387168085529252808320805460ff1916905551339287917ff6391f5c32d9c69d2a47ea670b442974b53935d1edc7fd64eb21e047a839171b9190a46001915050610921565b6003546040516370a0823160e01b81523060048201526000916201000090046001600160a01b0316906370a0823190602401602060405180830381865afa15801561284d573d6000803e3d6000fd5b505050506040513d601f19601f820116820180604052508101906128719190613841565b9050808211156128fa5760035460405163a9059cbb60e01b81526001600160a01b03858116600483015260248201849052620100009092049091169063a9059cbb906044015b6020604051808303816000875af11580156128d6573d6000803e3d6000fd5b505050506040513d601f19601f82011682018060405250810190610c479190613824565b60035460405163a9059cbb60e01b81526001600160a01b03858116600483015260248201859052620100009092049091169063a9059cbb906044016128b7565b61253d613052565b306001600160a01b037f00000000000000000000000000000000000000000000000000000000000000001614806129c957507f00000000000000000000000000000000000000000000000000000000000000006001600160a01b03166129bd6000805160206138ff833981519152546001600160a01b031690565b6001600160a01b031614155b1561253d5760405163703e46dd60e11b815260040160405180910390fd5b7fcab03bc4dbcc648cd59d6bbe9f848d1e9092f914016aa290ee92e18700d1e6f9611178816126d0565b816001600160a01b03166352d1902d6040518163ffffffff1660e01b8152600401602060405180830381865afa925050508015612a6b575060408051601f3d908101601f19168201909252612a6891810190613841565b60015b612a9357604051634c9c8ce360e01b81526001600160a01b038316600482015260240161094d565b6000805160206138ff8339815191528114612ac457604051632a87526960e21b81526004810182905260240161094d565b610c80838361309b565b60008083600003612ae55750600190506000612b12565b83830283858281612af857612af861376b565b0414612b0b576000809250925050612b12565b6001925090505b9250929050565b60008082600003612b2f57506000905080612b12565b6001838581612b4057612b4061376b565b04915091509250929050565b60008083830184811015612b0b576000809250925050612b12565b306001600160a01b037f0000000000000000000000000000000000000000000000000000000000000000161461253d5760405163703e46dd60e11b815260040160405180910390fd5b6111788282604051602401612bc692919061385a565b60408051601f198184030181529190526020810180516001600160e01b0316632d839cb360e21b1790526130f1565b600060058381548110612c0a57612c0a6136d3565b60009182526020808320868452600682526040808520338652909252922060079091029091019150612c3b8461117c565b805415612dc457600382015481546000918291612c5791612ace565b9150915081612c785760405162461bcd60e51b815260040161094d9061387c565b612c8a81670de0b6b3a7640000612b19565b909250905081612cdc5760405162461bcd60e51b815260206004820152601a60248201527f6163635354206469762031206574686572206f766572666c6f77000000000000604482015260640161094d565b600080612cf68560010154846130fa90919063ffffffff16565b9150915081612d475760405162461bcd60e51b815260206004820152601e60248201527f6163635354207375622066696e6973686564524343206f766572666c6f770000604482015260640161094d565b8015612dbf57600080612d67838860020154612b4c90919063ffffffff16565b9150915081612db85760405162461bcd60e51b815260206004820152601860248201527f757365722070656e64696e67524343206f766572666c6f770000000000000000604482015260640161094d565b6002870155505b505050505b8215612e295780546000908190612ddb9086612b4c565b9150915081612e255760405162461bcd60e51b815260206004820152601660248201527575736572207374416d6f756e74206f766572666c6f7760501b604482015260640161094d565b8255505b600080612e43858560040154612b4c90919063ffffffff16565b9150915081612e945760405162461bcd60e51b815260206004820152601b60248201527f706f6f6c207374546f6b656e416d6f756e74206f766572666c6f770000000000604482015260640161094d565b60048401819055600384015483546000918291612eb091612ace565b9150915081612ed15760405162461bcd60e51b815260040161094d9061387c565b612ee381670de0b6b3a7640000612b19565b909250905081612f355760405162461bcd60e51b815260206004820181905260248201527f66696e6973686564524343206469762031206574686572206f766572666c6f77604482015260640161094d565b60018501819055604051878152889033907f90890809c654f11d6e72a28fa60149770a0d11ec6c92319d6ceb2bb0a4ea1a159060200160405180910390a35050505050505050565b6040516001600160a01b038481166024830152838116604483015260648201839052610c479186918216906323b872dd9060840161269e565b6000612fcb6001600160a01b0384168361311c565b90508051600014158015612ff0575080806020019051810190612fee9190613824565b155b15610c8057604051635274afe760e01b81526001600160a01b038416600482015260240161094d565b6130238282611795565b6111785760405163e2517d3f60e01b81526001600160a01b03821660048201526024810183905260440161094d565b7ff0c57e16840df040f15088dc2f81fe391c3923bec73e23a9662efc9c229c6a0054600160401b900460ff1661253d57604051631afcd79f60e31b815260040160405180910390fd5b6130a482613131565b6040516001600160a01b038316907fbc7cd75a20ee27fd9adebab32041f755214dbc6bffa90cc0225b39da2e5c2d3b90600090a28051156130e957610c808282613196565b61117861320c565b6126da8161322b565b6000808383111561311057506000905080612b12565b50600193919092039150565b606061312a8383600061324c565b9392505050565b806001600160a01b03163b60000361316757604051634c9c8ce360e01b81526001600160a01b038216600482015260240161094d565b6000805160206138ff83398151915280546001600160a01b0319166001600160a01b0392909216919091179055565b6060600080846001600160a01b0316846040516131b391906138c2565b600060405180830381855af49150503d80600081146131ee576040519150601f19603f3d011682016040523d82523d6000602084013e6131f3565b606091505b50915091506132038583836132e9565b95945050505050565b341561253d5760405163b398979f60e01b815260040160405180910390fd5b60006a636f6e736f6c652e6c6f679050600080835160208501845afa505050565b6060814710156132715760405163cd78605960e01b815230600482015260240161094d565b600080856001600160a01b0316848660405161328d91906138c2565b60006040518083038185875af1925050503d80600081146132ca576040519150601f19603f3d011682016040523d82523d6000602084013e6132cf565b606091505b50915091506132df8683836132e9565b9695505050505050565b6060826132fe576132f982613345565b61312a565b815115801561331557506001600160a01b0384163b155b1561333e57604051639996b31560e01b81526001600160a01b038516600482015260240161094d565b508061312a565b8051156133555780518082602001fd5b604051630a12f52160e11b815260040160405180910390fd5b60006020828403121561338057600080fd5b81356001600160e01b03198116811461312a57600080fd5b6001600160a01b03811681146126da57600080fd5b600080604083850312156133c057600080fd5b8235915060208301356133d281613398565b809150509250929050565b6000602082840312156133ef57600080fd5b5035919050565b60008060006060848603121561340b57600080fd5b83359250602084013561341d81613398565b929592945050506040919091013590565b6000806000806080858703121561344457600080fd5b843561344f81613398565b966020860135965060408601359560600135945092505050565b634e487b7160e01b600052604160045260246000fd5b6000806040838503121561349257600080fd5b823561349d81613398565b9150602083013567ffffffffffffffff808211156134ba57600080fd5b818501915085601f8301126134ce57600080fd5b8135818111156134e0576134e0613469565b604051601f8201601f19908116603f0116810190838211818310171561350857613508613469565b8160405282815288602084870101111561352157600080fd5b8260208601602083013760006020848301015280955050505050509250929050565b6000806040838503121561355657600080fd5b50508035926020909101359150565b60005b83811015613580578181015183820152602001613568565b50506000910152565b600081518084526135a1816020860160208601613565565b601f01601f19169290920160200192915050565b60208152600061312a6020830184613589565b80151581146126da57600080fd5b600080600080600060a086880312156135ee57600080fd5b85356135f981613398565b9450602086013593506040860135925060608601359150608086013561361e816135c8565b809150509295509295909350565b60008060006060848603121561364157600080fd5b505081359360208301359350604090920135919050565b60006020828403121561366a57600080fd5b813561312a81613398565b60008060006060848603121561368a57600080fd5b833592506020840135915060408401356136a3816135c8565b809150509250925092565b6020808252600b908201526a1a5b9d985b1a59081c1a5960aa1b604082015260600190565b634e487b7160e01b600052603260045260246000fd5b634e487b7160e01b600052601160045260246000fd5b80820180821115610921576109216136e9565b600060018201613724576137246136e9565b5060010190565b81810381811115610921576109216136e9565b634e487b7160e01b600052603160045260246000fd5b8082028115828204841417610921576109216136e9565b634e487b7160e01b600052601260045260246000fd5b60008261379e57634e487b7160e01b600052601260045260246000fd5b500490565b6020808252601d908201527f696e76616c6964207374616b696e6720746f6b656e2061646472657373000000604082015260600190565b6020808252602a908201527f737461727420626c6f636b206d75737420626520736d616c6c6572207468616e60408201526920656e6420626c6f636b60b01b606082015260800190565b60006020828403121561383657600080fd5b815161312a816135c8565b60006020828403121561385357600080fd5b5051919050565b60408152600061386d6040830185613589565b90508260208301529392505050565b60208082526026908201527f75736572207374416d6f756e74206d756c206163635243435065725354206f766040820152656572666c6f7760d01b606082015260800190565b600082516138d4818460208701613565565b919091019291505056fe589d473ba17c0f47d494622893831497bad25919b9afb8e33e9521b8963fccde360894a13ba1a3210667c828492db98dca3e2076cc3735a920a3ca505d382bbc02dd7bc7dec4dceedda775e58dd541e08a116c6c53815c0bd028192f7b626800a2646970667358221220f32492aa669639359597a8e6878f99dc7069dd70750f5cf0e8c3b8953cd25b2964736f6c63430008180033",
  "linkReferences": {},
  "deployedLinkReferences": {}
}